{
	"whitelist.sol": {
		"Whitelist": {
			"abi": [
				{
					"inputs": [],
					"stateMutability": "nonpayable",
					"type": "constructor"
				},
				{
					"inputs": [
						{
							"internalType": "address",
							"name": "_addressToWhitelist",
							"type": "address"
						}
					],
					"name": "addUser",
					"outputs": [],
					"stateMutability": "nonpayable",
					"type": "function"
				},
				{
					"inputs": [],
					"name": "exampleFunction",
					"outputs": [
						{
							"internalType": "bool",
							"name": "",
							"type": "bool"
						}
					],
					"stateMutability": "view",
					"type": "function"
				},
				{
					"inputs": [
						{
							"internalType": "address",
							"name": "_whitelistedAddress",
							"type": "address"
						}
					],
					"name": "verifyUser",
					"outputs": [
						{
							"internalType": "bool",
							"name": "",
							"type": "bool"
						}
					],
					"stateMutability": "view",
					"type": "function"
				}
			],
			"devdoc": {
				"kind": "dev",
				"methods": {},
				"version": 1
			},
			"evm": {
				"assembly": "    /* \"whitelist.sol\":74:959  contract Whitelist {\r... */\n  mstore(0x40, 0x80)\n    /* \"whitelist.sol\":178:227  constructor() {\r... */\n  callvalue\n  dup1\n  iszero\n  tag_1\n  jumpi\n  0x00\n  dup1\n  revert\ntag_1:\n  pop\n    /* \"whitelist.sol\":209:219  msg.sender */\n  caller\n    /* \"whitelist.sol\":201:206  owner */\n  0x00\n  dup1\n    /* \"whitelist.sol\":201:219  owner = msg.sender */\n  0x0100\n  exp\n  dup2\n  sload\n  dup2\n  0xffffffffffffffffffffffffffffffffffffffff\n  mul\n  not\n  and\n  swap1\n  dup4\n  0xffffffffffffffffffffffffffffffffffffffff\n  and\n  mul\n  or\n  swap1\n  sstore\n  pop\n    /* \"whitelist.sol\":74:959  contract Whitelist {\r... */\n  dataSize(sub_0)\n  dup1\n  dataOffset(sub_0)\n  0x00\n  codecopy\n  0x00\n  return\nstop\n\nsub_0: assembly {\n        /* \"whitelist.sol\":74:959  contract Whitelist {\r... */\n      mstore(0x40, 0x80)\n      callvalue\n      dup1\n      iszero\n      tag_1\n      jumpi\n      0x00\n      dup1\n      revert\n    tag_1:\n      pop\n      jumpi(tag_2, lt(calldatasize, 0x04))\n      shr(0xe0, calldataload(0x00))\n      dup1\n      0x421b2d8b\n      eq\n      tag_3\n      jumpi\n      dup1\n      0x4d813120\n      eq\n      tag_4\n      jumpi\n      dup1\n      0xce2f67a2\n      eq\n      tag_5\n      jumpi\n    tag_2:\n      0x00\n      dup1\n      revert\n        /* \"whitelist.sol\":511:639  function addUser(address _addressToWhitelist) public onlyOwner {\r... */\n    tag_3:\n      tag_6\n      0x04\n      dup1\n      calldatasize\n      sub\n      dup2\n      add\n      swap1\n      tag_7\n      swap2\n      swap1\n      tag_8\n      jump\t// in\n    tag_7:\n      tag_9\n      jump\t// in\n    tag_6:\n      stop\n        /* \"whitelist.sol\":647:838  function verifyUser(address _whitelistedAddress) public view returns(bool) {\r... */\n    tag_4:\n      tag_10\n      0x04\n      dup1\n      calldatasize\n      sub\n      dup2\n      add\n      swap1\n      tag_11\n      swap2\n      swap1\n      tag_8\n      jump\t// in\n    tag_11:\n      tag_12\n      jump\t// in\n    tag_10:\n      mload(0x40)\n      tag_13\n      swap2\n      swap1\n      tag_14\n      jump\t// in\n    tag_13:\n      mload(0x40)\n      dup1\n      swap2\n      sub\n      swap1\n      return\n        /* \"whitelist.sol\":846:954  function exampleFunction() public view isWhitelisted(msg.sender) returns(bool){\r... */\n    tag_5:\n      tag_15\n      tag_16\n      jump\t// in\n    tag_15:\n      mload(0x40)\n      tag_17\n      swap2\n      swap1\n      tag_14\n      jump\t// in\n    tag_17:\n      mload(0x40)\n      dup1\n      swap2\n      sub\n      swap1\n      return\n        /* \"whitelist.sol\":511:639  function addUser(address _addressToWhitelist) public onlyOwner {\r... */\n    tag_9:\n        /* \"whitelist.sol\":287:292  owner */\n      0x00\n      dup1\n      sload\n      swap1\n      0x0100\n      exp\n      swap1\n      div\n      0xffffffffffffffffffffffffffffffffffffffff\n      and\n        /* \"whitelist.sol\":273:292  msg.sender == owner */\n      0xffffffffffffffffffffffffffffffffffffffff\n      and\n        /* \"whitelist.sol\":273:283  msg.sender */\n      caller\n        /* \"whitelist.sol\":273:292  msg.sender == owner */\n      0xffffffffffffffffffffffffffffffffffffffff\n      and\n      eq\n        /* \"whitelist.sol\":265:329  require(msg.sender == owner, \"Ownable: caller is not the owner\") */\n      tag_19\n      jumpi\n      mload(0x40)\n      0x08c379a000000000000000000000000000000000000000000000000000000000\n      dup2\n      mstore\n      0x04\n      add\n      tag_20\n      swap1\n      tag_21\n      jump\t// in\n    tag_20:\n      mload(0x40)\n      dup1\n      swap2\n      sub\n      swap1\n      revert\n    tag_19:\n        /* \"whitelist.sol\":627:631  true */\n      0x01\n        /* \"whitelist.sol\":583:603  whitelistedAddresses */\n      dup1\n        /* \"whitelist.sol\":583:624  whitelistedAddresses[_addressToWhitelist] */\n      0x00\n        /* \"whitelist.sol\":604:623  _addressToWhitelist */\n      dup4\n        /* \"whitelist.sol\":583:624  whitelistedAddresses[_addressToWhitelist] */\n      0xffffffffffffffffffffffffffffffffffffffff\n      and\n      0xffffffffffffffffffffffffffffffffffffffff\n      and\n      dup2\n      mstore\n      0x20\n      add\n      swap1\n      dup2\n      mstore\n      0x20\n      add\n      0x00\n      keccak256\n      0x00\n        /* \"whitelist.sol\":583:631  whitelistedAddresses[_addressToWhitelist] = true */\n      0x0100\n      exp\n      dup2\n      sload\n      dup2\n      0xff\n      mul\n      not\n      and\n      swap1\n      dup4\n      iszero\n      iszero\n      mul\n      or\n      swap1\n      sstore\n      pop\n        /* \"whitelist.sol\":511:639  function addUser(address _addressToWhitelist) public onlyOwner {\r... */\n      pop\n      jump\t// out\n        /* \"whitelist.sol\":647:838  function verifyUser(address _whitelistedAddress) public view returns(bool) {\r... */\n    tag_12:\n        /* \"whitelist.sol\":716:720  bool */\n      0x00\n        /* \"whitelist.sol\":731:753  bool userIsWhitelisted */\n      dup1\n        /* \"whitelist.sol\":756:776  whitelistedAddresses */\n      0x01\n        /* \"whitelist.sol\":756:797  whitelistedAddresses[_whitelistedAddress] */\n      0x00\n        /* \"whitelist.sol\":777:796  _whitelistedAddress */\n      dup5\n        /* \"whitelist.sol\":756:797  whitelistedAddresses[_whitelistedAddress] */\n      0xffffffffffffffffffffffffffffffffffffffff\n      and\n      0xffffffffffffffffffffffffffffffffffffffff\n      and\n      dup2\n      mstore\n      0x20\n      add\n      swap1\n      dup2\n      mstore\n      0x20\n      add\n      0x00\n      keccak256\n      0x00\n      swap1\n      sload\n      swap1\n      0x0100\n      exp\n      swap1\n      div\n      0xff\n      and\n        /* \"whitelist.sol\":731:797  bool userIsWhitelisted = whitelistedAddresses[_whitelistedAddress] */\n      swap1\n      pop\n        /* \"whitelist.sol\":813:830  userIsWhitelisted */\n      dup1\n        /* \"whitelist.sol\":806:830  return userIsWhitelisted */\n      swap2\n      pop\n      pop\n        /* \"whitelist.sol\":647:838  function verifyUser(address _whitelistedAddress) public view returns(bool) {\r... */\n      swap2\n      swap1\n      pop\n      jump\t// out\n        /* \"whitelist.sol\":846:954  function exampleFunction() public view isWhitelisted(msg.sender) returns(bool){\r... */\n    tag_16:\n        /* \"whitelist.sol\":919:923  bool */\n      0x00\n        /* \"whitelist.sol\":899:909  msg.sender */\n      caller\n        /* \"whitelist.sol\":413:433  whitelistedAddresses */\n      0x01\n        /* \"whitelist.sol\":413:443  whitelistedAddresses[_address] */\n      0x00\n        /* \"whitelist.sol\":434:442  _address */\n      dup3\n        /* \"whitelist.sol\":413:443  whitelistedAddresses[_address] */\n      0xffffffffffffffffffffffffffffffffffffffff\n      and\n      0xffffffffffffffffffffffffffffffffffffffff\n      and\n      dup2\n      mstore\n      0x20\n      add\n      swap1\n      dup2\n      mstore\n      0x20\n      add\n      0x00\n      keccak256\n      0x00\n      swap1\n      sload\n      swap1\n      0x0100\n      exp\n      swap1\n      div\n      0xff\n      and\n        /* \"whitelist.sol\":405:485  require(whitelistedAddresses[_address], \"Whitelist: You need to be whitelisted\") */\n      tag_25\n      jumpi\n      mload(0x40)\n      0x08c379a000000000000000000000000000000000000000000000000000000000\n      dup2\n      mstore\n      0x04\n      add\n      tag_26\n      swap1\n      tag_27\n      jump\t// in\n    tag_26:\n      mload(0x40)\n      dup1\n      swap2\n      sub\n      swap1\n      revert\n    tag_25:\n        /* \"whitelist.sol\":941:945  true */\n      0x01\n        /* \"whitelist.sol\":933:946  return (true) */\n      swap2\n      pop\n        /* \"whitelist.sol\":846:954  function exampleFunction() public view isWhitelisted(msg.sender) returns(bool){\r... */\n      pop\n      swap1\n      jump\t// out\n        /* \"#utility.yul\":7:146   */\n    tag_30:\n        /* \"#utility.yul\":53:58   */\n      0x00\n        /* \"#utility.yul\":91:97   */\n      dup2\n        /* \"#utility.yul\":78:98   */\n      calldataload\n        /* \"#utility.yul\":69:98   */\n      swap1\n      pop\n        /* \"#utility.yul\":107:140   */\n      tag_32\n        /* \"#utility.yul\":134:139   */\n      dup2\n        /* \"#utility.yul\":107:140   */\n      tag_33\n      jump\t// in\n    tag_32:\n        /* \"#utility.yul\":7:146   */\n      swap3\n      swap2\n      pop\n      pop\n      jump\t// out\n        /* \"#utility.yul\":152:481   */\n    tag_8:\n        /* \"#utility.yul\":211:217   */\n      0x00\n        /* \"#utility.yul\":260:262   */\n      0x20\n        /* \"#utility.yul\":248:257   */\n      dup3\n        /* \"#utility.yul\":239:246   */\n      dup5\n        /* \"#utility.yul\":235:258   */\n      sub\n        /* \"#utility.yul\":231:263   */\n      slt\n        /* \"#utility.yul\":228:347   */\n      iszero\n      tag_35\n      jumpi\n        /* \"#utility.yul\":266:345   */\n      tag_36\n      tag_37\n      jump\t// in\n    tag_36:\n        /* \"#utility.yul\":228:347   */\n    tag_35:\n        /* \"#utility.yul\":386:387   */\n      0x00\n        /* \"#utility.yul\":411:464   */\n      tag_38\n        /* \"#utility.yul\":456:463   */\n      dup5\n        /* \"#utility.yul\":447:453   */\n      dup3\n        /* \"#utility.yul\":436:445   */\n      dup6\n        /* \"#utility.yul\":432:454   */\n      add\n        /* \"#utility.yul\":411:464   */\n      tag_30\n      jump\t// in\n    tag_38:\n        /* \"#utility.yul\":401:464   */\n      swap2\n      pop\n        /* \"#utility.yul\":357:474   */\n      pop\n        /* \"#utility.yul\":152:481   */\n      swap3\n      swap2\n      pop\n      pop\n      jump\t// out\n        /* \"#utility.yul\":487:596   */\n    tag_39:\n        /* \"#utility.yul\":568:589   */\n      tag_41\n        /* \"#utility.yul\":583:588   */\n      dup2\n        /* \"#utility.yul\":568:589   */\n      tag_42\n      jump\t// in\n    tag_41:\n        /* \"#utility.yul\":563:566   */\n      dup3\n        /* \"#utility.yul\":556:590   */\n      mstore\n        /* \"#utility.yul\":487:596   */\n      pop\n      pop\n      jump\t// out\n        /* \"#utility.yul\":602:968   */\n    tag_43:\n        /* \"#utility.yul\":744:747   */\n      0x00\n        /* \"#utility.yul\":765:832   */\n      tag_45\n        /* \"#utility.yul\":829:831   */\n      0x20\n        /* \"#utility.yul\":824:827   */\n      dup4\n        /* \"#utility.yul\":765:832   */\n      tag_46\n      jump\t// in\n    tag_45:\n        /* \"#utility.yul\":758:832   */\n      swap2\n      pop\n        /* \"#utility.yul\":841:934   */\n      tag_47\n        /* \"#utility.yul\":930:933   */\n      dup3\n        /* \"#utility.yul\":841:934   */\n      tag_48\n      jump\t// in\n    tag_47:\n        /* \"#utility.yul\":959:961   */\n      0x20\n        /* \"#utility.yul\":954:957   */\n      dup3\n        /* \"#utility.yul\":950:962   */\n      add\n        /* \"#utility.yul\":943:962   */\n      swap1\n      pop\n        /* \"#utility.yul\":602:968   */\n      swap2\n      swap1\n      pop\n      jump\t// out\n        /* \"#utility.yul\":974:1340   */\n    tag_49:\n        /* \"#utility.yul\":1116:1119   */\n      0x00\n        /* \"#utility.yul\":1137:1204   */\n      tag_51\n        /* \"#utility.yul\":1201:1203   */\n      0x25\n        /* \"#utility.yul\":1196:1199   */\n      dup4\n        /* \"#utility.yul\":1137:1204   */\n      tag_46\n      jump\t// in\n    tag_51:\n        /* \"#utility.yul\":1130:1204   */\n      swap2\n      pop\n        /* \"#utility.yul\":1213:1306   */\n      tag_52\n        /* \"#utility.yul\":1302:1305   */\n      dup3\n        /* \"#utility.yul\":1213:1306   */\n      tag_53\n      jump\t// in\n    tag_52:\n        /* \"#utility.yul\":1331:1333   */\n      0x40\n        /* \"#utility.yul\":1326:1329   */\n      dup3\n        /* \"#utility.yul\":1322:1334   */\n      add\n        /* \"#utility.yul\":1315:1334   */\n      swap1\n      pop\n        /* \"#utility.yul\":974:1340   */\n      swap2\n      swap1\n      pop\n      jump\t// out\n        /* \"#utility.yul\":1346:1556   */\n    tag_14:\n        /* \"#utility.yul\":1433:1437   */\n      0x00\n        /* \"#utility.yul\":1471:1473   */\n      0x20\n        /* \"#utility.yul\":1460:1469   */\n      dup3\n        /* \"#utility.yul\":1456:1474   */\n      add\n        /* \"#utility.yul\":1448:1474   */\n      swap1\n      pop\n        /* \"#utility.yul\":1484:1549   */\n      tag_55\n        /* \"#utility.yul\":1546:1547   */\n      0x00\n        /* \"#utility.yul\":1535:1544   */\n      dup4\n        /* \"#utility.yul\":1531:1548   */\n      add\n        /* \"#utility.yul\":1522:1528   */\n      dup5\n        /* \"#utility.yul\":1484:1549   */\n      tag_39\n      jump\t// in\n    tag_55:\n        /* \"#utility.yul\":1346:1556   */\n      swap3\n      swap2\n      pop\n      pop\n      jump\t// out\n        /* \"#utility.yul\":1562:1981   */\n    tag_21:\n        /* \"#utility.yul\":1728:1732   */\n      0x00\n        /* \"#utility.yul\":1766:1768   */\n      0x20\n        /* \"#utility.yul\":1755:1764   */\n      dup3\n        /* \"#utility.yul\":1751:1769   */\n      add\n        /* \"#utility.yul\":1743:1769   */\n      swap1\n      pop\n        /* \"#utility.yul\":1815:1824   */\n      dup2\n        /* \"#utility.yul\":1809:1813   */\n      dup2\n        /* \"#utility.yul\":1805:1825   */\n      sub\n        /* \"#utility.yul\":1801:1802   */\n      0x00\n        /* \"#utility.yul\":1790:1799   */\n      dup4\n        /* \"#utility.yul\":1786:1803   */\n      add\n        /* \"#utility.yul\":1779:1826   */\n      mstore\n        /* \"#utility.yul\":1843:1974   */\n      tag_57\n        /* \"#utility.yul\":1969:1973   */\n      dup2\n        /* \"#utility.yul\":1843:1974   */\n      tag_43\n      jump\t// in\n    tag_57:\n        /* \"#utility.yul\":1835:1974   */\n      swap1\n      pop\n        /* \"#utility.yul\":1562:1981   */\n      swap2\n      swap1\n      pop\n      jump\t// out\n        /* \"#utility.yul\":1987:2406   */\n    tag_27:\n        /* \"#utility.yul\":2153:2157   */\n      0x00\n        /* \"#utility.yul\":2191:2193   */\n      0x20\n        /* \"#utility.yul\":2180:2189   */\n      dup3\n        /* \"#utility.yul\":2176:2194   */\n      add\n        /* \"#utility.yul\":2168:2194   */\n      swap1\n      pop\n        /* \"#utility.yul\":2240:2249   */\n      dup2\n        /* \"#utility.yul\":2234:2238   */\n      dup2\n        /* \"#utility.yul\":2230:2250   */\n      sub\n        /* \"#utility.yul\":2226:2227   */\n      0x00\n        /* \"#utility.yul\":2215:2224   */\n      dup4\n        /* \"#utility.yul\":2211:2228   */\n      add\n        /* \"#utility.yul\":2204:2251   */\n      mstore\n        /* \"#utility.yul\":2268:2399   */\n      tag_59\n        /* \"#utility.yul\":2394:2398   */\n      dup2\n        /* \"#utility.yul\":2268:2399   */\n      tag_49\n      jump\t// in\n    tag_59:\n        /* \"#utility.yul\":2260:2399   */\n      swap1\n      pop\n        /* \"#utility.yul\":1987:2406   */\n      swap2\n      swap1\n      pop\n      jump\t// out\n        /* \"#utility.yul\":2493:2662   */\n    tag_46:\n        /* \"#utility.yul\":2577:2588   */\n      0x00\n        /* \"#utility.yul\":2611:2617   */\n      dup3\n        /* \"#utility.yul\":2606:2609   */\n      dup3\n        /* \"#utility.yul\":2599:2618   */\n      mstore\n        /* \"#utility.yul\":2651:2655   */\n      0x20\n        /* \"#utility.yul\":2646:2649   */\n      dup3\n        /* \"#utility.yul\":2642:2656   */\n      add\n        /* \"#utility.yul\":2627:2656   */\n      swap1\n      pop\n        /* \"#utility.yul\":2493:2662   */\n      swap3\n      swap2\n      pop\n      pop\n      jump\t// out\n        /* \"#utility.yul\":2668:2764   */\n    tag_63:\n        /* \"#utility.yul\":2705:2712   */\n      0x00\n        /* \"#utility.yul\":2734:2758   */\n      tag_65\n        /* \"#utility.yul\":2752:2757   */\n      dup3\n        /* \"#utility.yul\":2734:2758   */\n      tag_66\n      jump\t// in\n    tag_65:\n        /* \"#utility.yul\":2723:2758   */\n      swap1\n      pop\n        /* \"#utility.yul\":2668:2764   */\n      swap2\n      swap1\n      pop\n      jump\t// out\n        /* \"#utility.yul\":2770:2860   */\n    tag_42:\n        /* \"#utility.yul\":2804:2811   */\n      0x00\n        /* \"#utility.yul\":2847:2852   */\n      dup2\n        /* \"#utility.yul\":2840:2853   */\n      iszero\n        /* \"#utility.yul\":2833:2854   */\n      iszero\n        /* \"#utility.yul\":2822:2854   */\n      swap1\n      pop\n        /* \"#utility.yul\":2770:2860   */\n      swap2\n      swap1\n      pop\n      jump\t// out\n        /* \"#utility.yul\":2866:2992   */\n    tag_66:\n        /* \"#utility.yul\":2903:2910   */\n      0x00\n        /* \"#utility.yul\":2943:2985   */\n      0xffffffffffffffffffffffffffffffffffffffff\n        /* \"#utility.yul\":2936:2941   */\n      dup3\n        /* \"#utility.yul\":2932:2986   */\n      and\n        /* \"#utility.yul\":2921:2986   */\n      swap1\n      pop\n        /* \"#utility.yul\":2866:2992   */\n      swap2\n      swap1\n      pop\n      jump\t// out\n        /* \"#utility.yul\":3121:3238   */\n    tag_37:\n        /* \"#utility.yul\":3230:3231   */\n      0x00\n        /* \"#utility.yul\":3227:3228   */\n      dup1\n        /* \"#utility.yul\":3220:3232   */\n      revert\n        /* \"#utility.yul\":3244:3426   */\n    tag_48:\n        /* \"#utility.yul\":3384:3418   */\n      0x4f776e61626c653a2063616c6c6572206973206e6f7420746865206f776e6572\n        /* \"#utility.yul\":3380:3381   */\n      0x00\n        /* \"#utility.yul\":3372:3378   */\n      dup3\n        /* \"#utility.yul\":3368:3382   */\n      add\n        /* \"#utility.yul\":3361:3419   */\n      mstore\n        /* \"#utility.yul\":3244:3426   */\n      pop\n      jump\t// out\n        /* \"#utility.yul\":3432:3656   */\n    tag_53:\n        /* \"#utility.yul\":3572:3606   */\n      0x57686974656c6973743a20596f75206e65656420746f2062652077686974656c\n        /* \"#utility.yul\":3568:3569   */\n      0x00\n        /* \"#utility.yul\":3560:3566   */\n      dup3\n        /* \"#utility.yul\":3556:3570   */\n      add\n        /* \"#utility.yul\":3549:3607   */\n      mstore\n        /* \"#utility.yul\":3641:3648   */\n      0x6973746564000000000000000000000000000000000000000000000000000000\n        /* \"#utility.yul\":3636:3638   */\n      0x20\n        /* \"#utility.yul\":3628:3634   */\n      dup3\n        /* \"#utility.yul\":3624:3639   */\n      add\n        /* \"#utility.yul\":3617:3649   */\n      mstore\n        /* \"#utility.yul\":3432:3656   */\n      pop\n      jump\t// out\n        /* \"#utility.yul\":3662:3784   */\n    tag_33:\n        /* \"#utility.yul\":3735:3759   */\n      tag_75\n        /* \"#utility.yul\":3753:3758   */\n      dup2\n        /* \"#utility.yul\":3735:3759   */\n      tag_63\n      jump\t// in\n    tag_75:\n        /* \"#utility.yul\":3728:3733   */\n      dup2\n        /* \"#utility.yul\":3725:3760   */\n      eq\n        /* \"#utility.yul\":3715:3778   */\n      tag_76\n      jumpi\n        /* \"#utility.yul\":3774:3775   */\n      0x00\n        /* \"#utility.yul\":3771:3772   */\n      dup1\n        /* \"#utility.yul\":3764:3776   */\n      revert\n        /* \"#utility.yul\":3715:3778   */\n    tag_76:\n        /* \"#utility.yul\":3662:3784   */\n      pop\n      jump\t// out\n\n    auxdata: 0xa2646970667358221220798886857e7eec73f711652a9c2743600866e98d5b3b8db387d4d072e732a1be64736f6c63430008070033\n}\n",
				"bytecode": {
					"linkReferences": {},
					"object": "608060405234801561001057600080fd5b50336000806101000a81548173ffffffffffffffffffffffffffffffffffffffff021916908373ffffffffffffffffffffffffffffffffffffffff160217905550610495806100606000396000f3fe608060405234801561001057600080fd5b50600436106100415760003560e01c8063421b2d8b146100465780634d81312014610062578063ce2f67a214610092575b600080fd5b610060600480360381019061005b919061029f565b6100b0565b005b61007c6004803603810190610077919061029f565b610198565b6040516100899190610321565b60405180910390f35b61009a6101f3565b6040516100a79190610321565b60405180910390f35b60008054906101000a900473ffffffffffffffffffffffffffffffffffffffff1673ffffffffffffffffffffffffffffffffffffffff163373ffffffffffffffffffffffffffffffffffffffff161461013e576040517f08c379a00000000000000000000000000000000000000000000000000000000081526004016101359061033c565b60405180910390fd5b60018060008373ffffffffffffffffffffffffffffffffffffffff1673ffffffffffffffffffffffffffffffffffffffff16815260200190815260200160002060006101000a81548160ff02191690831515021790555050565b600080600160008473ffffffffffffffffffffffffffffffffffffffff1673ffffffffffffffffffffffffffffffffffffffff16815260200190815260200160002060009054906101000a900460ff16905080915050919050565b600033600160008273ffffffffffffffffffffffffffffffffffffffff1673ffffffffffffffffffffffffffffffffffffffff16815260200190815260200160002060009054906101000a900460ff16610282576040517f08c379a00000000000000000000000000000000000000000000000000000000081526004016102799061035c565b60405180910390fd5b600191505090565b60008135905061029981610448565b92915050565b6000602082840312156102b5576102b46103cb565b5b60006102c38482850161028a565b91505092915050565b6102d58161039f565b82525050565b60006102e860208361037c565b91506102f3826103d0565b602082019050919050565b600061030b60258361037c565b9150610316826103f9565b604082019050919050565b600060208201905061033660008301846102cc565b92915050565b60006020820190508181036000830152610355816102db565b9050919050565b60006020820190508181036000830152610375816102fe565b9050919050565b600082825260208201905092915050565b6000610398826103ab565b9050919050565b60008115159050919050565b600073ffffffffffffffffffffffffffffffffffffffff82169050919050565b600080fd5b7f4f776e61626c653a2063616c6c6572206973206e6f7420746865206f776e6572600082015250565b7f57686974656c6973743a20596f75206e65656420746f2062652077686974656c60008201527f6973746564000000000000000000000000000000000000000000000000000000602082015250565b6104518161038d565b811461045c57600080fd5b5056fea2646970667358221220798886857e7eec73f711652a9c2743600866e98d5b3b8db387d4d072e732a1be64736f6c63430008070033",
					"opcodes": "PUSH1 0x80 PUSH1 0x40 MSTORE CALLVALUE DUP1 ISZERO PUSH2 0x10 JUMPI PUSH1 0x0 DUP1 REVERT JUMPDEST POP CALLER PUSH1 0x0 DUP1 PUSH2 0x100 EXP DUP2 SLOAD DUP2 PUSH20 0xFFFFFFFFFFFFFFFFFFFFFFFFFFFFFFFFFFFFFFFF MUL NOT AND SWAP1 DUP4 PUSH20 0xFFFFFFFFFFFFFFFFFFFFFFFFFFFFFFFFFFFFFFFF AND MUL OR SWAP1 SSTORE POP PUSH2 0x495 DUP1 PUSH2 0x60 PUSH1 0x0 CODECOPY PUSH1 0x0 RETURN INVALID PUSH1 0x80 PUSH1 0x40 MSTORE CALLVALUE DUP1 ISZERO PUSH2 0x10 JUMPI PUSH1 0x0 DUP1 REVERT JUMPDEST POP PUSH1 0x4 CALLDATASIZE LT PUSH2 0x41 JUMPI PUSH1 0x0 CALLDATALOAD PUSH1 0xE0 SHR DUP1 PUSH4 0x421B2D8B EQ PUSH2 0x46 JUMPI DUP1 PUSH4 0x4D813120 EQ PUSH2 0x62 JUMPI DUP1 PUSH4 0xCE2F67A2 EQ PUSH2 0x92 JUMPI JUMPDEST PUSH1 0x0 DUP1 REVERT JUMPDEST PUSH2 0x60 PUSH1 0x4 DUP1 CALLDATASIZE SUB DUP2 ADD SWAP1 PUSH2 0x5B SWAP2 SWAP1 PUSH2 0x29F JUMP JUMPDEST PUSH2 0xB0 JUMP JUMPDEST STOP JUMPDEST PUSH2 0x7C PUSH1 0x4 DUP1 CALLDATASIZE SUB DUP2 ADD SWAP1 PUSH2 0x77 SWAP2 SWAP1 PUSH2 0x29F JUMP JUMPDEST PUSH2 0x198 JUMP JUMPDEST PUSH1 0x40 MLOAD PUSH2 0x89 SWAP2 SWAP1 PUSH2 0x321 JUMP JUMPDEST PUSH1 0x40 MLOAD DUP1 SWAP2 SUB SWAP1 RETURN JUMPDEST PUSH2 0x9A PUSH2 0x1F3 JUMP JUMPDEST PUSH1 0x40 MLOAD PUSH2 0xA7 SWAP2 SWAP1 PUSH2 0x321 JUMP JUMPDEST PUSH1 0x40 MLOAD DUP1 SWAP2 SUB SWAP1 RETURN JUMPDEST PUSH1 0x0 DUP1 SLOAD SWAP1 PUSH2 0x100 EXP SWAP1 DIV PUSH20 0xFFFFFFFFFFFFFFFFFFFFFFFFFFFFFFFFFFFFFFFF AND PUSH20 0xFFFFFFFFFFFFFFFFFFFFFFFFFFFFFFFFFFFFFFFF AND CALLER PUSH20 0xFFFFFFFFFFFFFFFFFFFFFFFFFFFFFFFFFFFFFFFF AND EQ PUSH2 0x13E JUMPI PUSH1 0x40 MLOAD PUSH32 0x8C379A000000000000000000000000000000000000000000000000000000000 DUP2 MSTORE PUSH1 0x4 ADD PUSH2 0x135 SWAP1 PUSH2 0x33C JUMP JUMPDEST PUSH1 0x40 MLOAD DUP1 SWAP2 SUB SWAP1 REVERT JUMPDEST PUSH1 0x1 DUP1 PUSH1 0x0 DUP4 PUSH20 0xFFFFFFFFFFFFFFFFFFFFFFFFFFFFFFFFFFFFFFFF AND PUSH20 0xFFFFFFFFFFFFFFFFFFFFFFFFFFFFFFFFFFFFFFFF AND DUP2 MSTORE PUSH1 0x20 ADD SWAP1 DUP2 MSTORE PUSH1 0x20 ADD PUSH1 0x0 KECCAK256 PUSH1 0x0 PUSH2 0x100 EXP DUP2 SLOAD DUP2 PUSH1 0xFF MUL NOT AND SWAP1 DUP4 ISZERO ISZERO MUL OR SWAP1 SSTORE POP POP JUMP JUMPDEST PUSH1 0x0 DUP1 PUSH1 0x1 PUSH1 0x0 DUP5 PUSH20 0xFFFFFFFFFFFFFFFFFFFFFFFFFFFFFFFFFFFFFFFF AND PUSH20 0xFFFFFFFFFFFFFFFFFFFFFFFFFFFFFFFFFFFFFFFF AND DUP2 MSTORE PUSH1 0x20 ADD SWAP1 DUP2 MSTORE PUSH1 0x20 ADD PUSH1 0x0 KECCAK256 PUSH1 0x0 SWAP1 SLOAD SWAP1 PUSH2 0x100 EXP SWAP1 DIV PUSH1 0xFF AND SWAP1 POP DUP1 SWAP2 POP POP SWAP2 SWAP1 POP JUMP JUMPDEST PUSH1 0x0 CALLER PUSH1 0x1 PUSH1 0x0 DUP3 PUSH20 0xFFFFFFFFFFFFFFFFFFFFFFFFFFFFFFFFFFFFFFFF AND PUSH20 0xFFFFFFFFFFFFFFFFFFFFFFFFFFFFFFFFFFFFFFFF AND DUP2 MSTORE PUSH1 0x20 ADD SWAP1 DUP2 MSTORE PUSH1 0x20 ADD PUSH1 0x0 KECCAK256 PUSH1 0x0 SWAP1 SLOAD SWAP1 PUSH2 0x100 EXP SWAP1 DIV PUSH1 0xFF AND PUSH2 0x282 JUMPI PUSH1 0x40 MLOAD PUSH32 0x8C379A000000000000000000000000000000000000000000000000000000000 DUP2 MSTORE PUSH1 0x4 ADD PUSH2 0x279 SWAP1 PUSH2 0x35C JUMP JUMPDEST PUSH1 0x40 MLOAD DUP1 SWAP2 SUB SWAP1 REVERT JUMPDEST PUSH1 0x1 SWAP2 POP POP SWAP1 JUMP JUMPDEST PUSH1 0x0 DUP2 CALLDATALOAD SWAP1 POP PUSH2 0x299 DUP2 PUSH2 0x448 JUMP JUMPDEST SWAP3 SWAP2 POP POP JUMP JUMPDEST PUSH1 0x0 PUSH1 0x20 DUP3 DUP5 SUB SLT ISZERO PUSH2 0x2B5 JUMPI PUSH2 0x2B4 PUSH2 0x3CB JUMP JUMPDEST JUMPDEST PUSH1 0x0 PUSH2 0x2C3 DUP5 DUP3 DUP6 ADD PUSH2 0x28A JUMP JUMPDEST SWAP2 POP POP SWAP3 SWAP2 POP POP JUMP JUMPDEST PUSH2 0x2D5 DUP2 PUSH2 0x39F JUMP JUMPDEST DUP3 MSTORE POP POP JUMP JUMPDEST PUSH1 0x0 PUSH2 0x2E8 PUSH1 0x20 DUP4 PUSH2 0x37C JUMP JUMPDEST SWAP2 POP PUSH2 0x2F3 DUP3 PUSH2 0x3D0 JUMP JUMPDEST PUSH1 0x20 DUP3 ADD SWAP1 POP SWAP2 SWAP1 POP JUMP JUMPDEST PUSH1 0x0 PUSH2 0x30B PUSH1 0x25 DUP4 PUSH2 0x37C JUMP JUMPDEST SWAP2 POP PUSH2 0x316 DUP3 PUSH2 0x3F9 JUMP JUMPDEST PUSH1 0x40 DUP3 ADD SWAP1 POP SWAP2 SWAP1 POP JUMP JUMPDEST PUSH1 0x0 PUSH1 0x20 DUP3 ADD SWAP1 POP PUSH2 0x336 PUSH1 0x0 DUP4 ADD DUP5 PUSH2 0x2CC JUMP JUMPDEST SWAP3 SWAP2 POP POP JUMP JUMPDEST PUSH1 0x0 PUSH1 0x20 DUP3 ADD SWAP1 POP DUP2 DUP2 SUB PUSH1 0x0 DUP4 ADD MSTORE PUSH2 0x355 DUP2 PUSH2 0x2DB JUMP JUMPDEST SWAP1 POP SWAP2 SWAP1 POP JUMP JUMPDEST PUSH1 0x0 PUSH1 0x20 DUP3 ADD SWAP1 POP DUP2 DUP2 SUB PUSH1 0x0 DUP4 ADD MSTORE PUSH2 0x375 DUP2 PUSH2 0x2FE JUMP JUMPDEST SWAP1 POP SWAP2 SWAP1 POP JUMP JUMPDEST PUSH1 0x0 DUP3 DUP3 MSTORE PUSH1 0x20 DUP3 ADD SWAP1 POP SWAP3 SWAP2 POP POP JUMP JUMPDEST PUSH1 0x0 PUSH2 0x398 DUP3 PUSH2 0x3AB JUMP JUMPDEST SWAP1 POP SWAP2 SWAP1 POP JUMP JUMPDEST PUSH1 0x0 DUP2 ISZERO ISZERO SWAP1 POP SWAP2 SWAP1 POP JUMP JUMPDEST PUSH1 0x0 PUSH20 0xFFFFFFFFFFFFFFFFFFFFFFFFFFFFFFFFFFFFFFFF DUP3 AND SWAP1 POP SWAP2 SWAP1 POP JUMP JUMPDEST PUSH1 0x0 DUP1 REVERT JUMPDEST PUSH32 0x4F776E61626C653A2063616C6C6572206973206E6F7420746865206F776E6572 PUSH1 0x0 DUP3 ADD MSTORE POP JUMP JUMPDEST PUSH32 0x57686974656C6973743A20596F75206E65656420746F2062652077686974656C PUSH1 0x0 DUP3 ADD MSTORE PUSH32 0x6973746564000000000000000000000000000000000000000000000000000000 PUSH1 0x20 DUP3 ADD MSTORE POP JUMP JUMPDEST PUSH2 0x451 DUP2 PUSH2 0x38D JUMP JUMPDEST DUP2 EQ PUSH2 0x45C JUMPI PUSH1 0x0 DUP1 REVERT JUMPDEST POP JUMP INVALID LOG2 PUSH5 0x6970667358 0x22 SLT KECCAK256 PUSH26 0x8886857E7EEC73F711652A9C2743600866E98D5B3B8DB387D4D0 PUSH19 0xE732A1BE64736F6C6343000807003300000000 "
				},
				"gasEstimates": {
					"creation": {
						"codeDepositCost": "234600",
						"executionCost": "24541",
						"totalCost": "259141"
					},
					"external": {
						"addUser(address)": "26957",
						"exampleFunction()": "2721",
						"verifyUser(address)": "2896"
					}
				},
				"methodIdentifiers": {
					"addUser(address)": "421b2d8b",
					"exampleFunction()": "ce2f67a2",
					"verifyUser(address)": "4d813120"
				}
			},
			"storageLayout": {
				"storage": [
					{
						"astId": 3,
						"contract": "whitelist.sol:Whitelist",
						"label": "owner",
						"offset": 0,
						"slot": "0",
						"type": "t_address"
					},
					{
						"astId": 7,
						"contract": "whitelist.sol:Whitelist",
						"label": "whitelistedAddresses",
						"offset": 0,
						"slot": "1",
						"type": "t_mapping(t_address,t_bool)"
					}
				],
				"types": {
					"t_address": {
						"encoding": "inplace",
						"label": "address",
						"numberOfBytes": "20"
					},
					"t_bool": {
						"encoding": "inplace",
						"label": "bool",
						"numberOfBytes": "1"
					},
					"t_mapping(t_address,t_bool)": {
						"encoding": "mapping",
						"key": "t_address",
						"label": "mapping(address => bool)",
						"numberOfBytes": "32",
						"value": "t_bool"
					}
				}
			},
			"userdoc": {
				"kind": "user",
				"methods": {},
				"version": 1
			}
		}
	}
}