{
	"airdrop.sol": {
		"NFTAirdrop": {
			"abi": [
				{
					"inputs": [],
					"stateMutability": "nonpayable",
					"type": "constructor"
				},
				{
					"inputs": [
						{
							"components": [
								{
									"internalType": "address",
									"name": "nft",
									"type": "address"
								},
								{
									"internalType": "uint256",
									"name": "id",
									"type": "uint256"
								}
							],
							"internalType": "struct NFTAirdrop.Airdrop[]",
							"name": "_airdrops",
							"type": "tuple[]"
						}
					],
					"name": "addAirdrops",
					"outputs": [],
					"stateMutability": "nonpayable",
					"type": "function"
				},
				{
					"inputs": [
						{
							"internalType": "address[]",
							"name": "_recipients",
							"type": "address[]"
						}
					],
					"name": "addRecipients",
					"outputs": [],
					"stateMutability": "nonpayable",
					"type": "function"
				},
				{
					"inputs": [],
					"name": "admin",
					"outputs": [
						{
							"internalType": "address",
							"name": "",
							"type": "address"
						}
					],
					"stateMutability": "view",
					"type": "function"
				},
				{
					"inputs": [
						{
							"internalType": "uint256",
							"name": "",
							"type": "uint256"
						}
					],
					"name": "airdrops",
					"outputs": [
						{
							"internalType": "address",
							"name": "nft",
							"type": "address"
						},
						{
							"internalType": "uint256",
							"name": "id",
							"type": "uint256"
						}
					],
					"stateMutability": "view",
					"type": "function"
				},
				{
					"inputs": [],
					"name": "claim",
					"outputs": [],
					"stateMutability": "nonpayable",
					"type": "function"
				},
				{
					"inputs": [],
					"name": "nextAirdropId",
					"outputs": [
						{
							"internalType": "uint256",
							"name": "",
							"type": "uint256"
						}
					],
					"stateMutability": "view",
					"type": "function"
				},
				{
					"inputs": [
						{
							"internalType": "address",
							"name": "",
							"type": "address"
						}
					],
					"name": "recipients",
					"outputs": [
						{
							"internalType": "bool",
							"name": "",
							"type": "bool"
						}
					],
					"stateMutability": "view",
					"type": "function"
				},
				{
					"inputs": [
						{
							"internalType": "address[]",
							"name": "_recipients",
							"type": "address[]"
						}
					],
					"name": "removeRecipients",
					"outputs": [],
					"stateMutability": "nonpayable",
					"type": "function"
				}
			],
			"devdoc": {
				"kind": "dev",
				"methods": {},
				"version": 1
			},
			"evm": {
				"assembly": "    /* \"airdrop.sol\":89:1497  contract NFTAirdrop {... */\n  mstore(0x40, 0x80)\n    /* \"airdrop.sol\":320:365  constructor() {... */\n  callvalue\n  dup1\n  iszero\n  tag_1\n  jumpi\n  0x00\n  dup1\n  revert\ntag_1:\n  pop\n    /* \"airdrop.sol\":349:359  msg.sender */\n  caller\n    /* \"airdrop.sol\":341:346  admin */\n  0x01\n  0x00\n    /* \"airdrop.sol\":341:359  admin = msg.sender */\n  0x0100\n  exp\n  dup2\n  sload\n  dup2\n  0xffffffffffffffffffffffffffffffffffffffff\n  mul\n  not\n  and\n  swap1\n  dup4\n  0xffffffffffffffffffffffffffffffffffffffff\n  and\n  mul\n  or\n  swap1\n  sstore\n  pop\n    /* \"airdrop.sol\":89:1497  contract NFTAirdrop {... */\n  dataSize(sub_0)\n  dup1\n  dataOffset(sub_0)\n  0x00\n  codecopy\n  0x00\n  return\nstop\n\nsub_0: assembly {\n        /* \"airdrop.sol\":89:1497  contract NFTAirdrop {... */\n      mstore(0x40, 0x80)\n      callvalue\n      dup1\n      iszero\n      tag_1\n      jumpi\n      0x00\n      dup1\n      revert\n    tag_1:\n      pop\n      jumpi(tag_2, lt(calldatasize, 0x04))\n      shr(0xe0, calldataload(0x00))\n      dup1\n      0xaff38dc8\n      gt\n      tag_11\n      jumpi\n      dup1\n      0xaff38dc8\n      eq\n      tag_7\n      jumpi\n      dup1\n      0xeb820312\n      eq\n      tag_8\n      jumpi\n      dup1\n      0xf851a440\n      eq\n      tag_9\n      jumpi\n      dup1\n      0xf8c8285b\n      eq\n      tag_10\n      jumpi\n      jump(tag_2)\n    tag_11:\n      dup1\n      0x29af54cc\n      eq\n      tag_3\n      jumpi\n      dup1\n      0x4e71d92d\n      eq\n      tag_4\n      jumpi\n      dup1\n      0x60db5082\n      eq\n      tag_5\n      jumpi\n      dup1\n      0x639ab82f\n      eq\n      tag_6\n      jumpi\n    tag_2:\n      0x00\n      dup1\n      revert\n        /* \"airdrop.sol\":742:960  function addRecipients(address[] memory _recipients) external {... */\n    tag_3:\n      tag_12\n      0x04\n      dup1\n      calldatasize\n      sub\n      dup2\n      add\n      swap1\n      tag_13\n      swap2\n      swap1\n      tag_14\n      jump\t// in\n    tag_13:\n      tag_15\n      jump\t// in\n    tag_12:\n      stop\n        /* \"airdrop.sol\":1194:1494  function claim() external {... */\n    tag_4:\n      tag_16\n      tag_17\n      jump\t// in\n    tag_16:\n      stop\n        /* \"airdrop.sol\":226:266  mapping(uint => Airdrop) public airdrops */\n    tag_5:\n      tag_18\n      0x04\n      dup1\n      calldatasize\n      sub\n      dup2\n      add\n      swap1\n      tag_19\n      swap2\n      swap1\n      tag_20\n      jump\t// in\n    tag_19:\n      tag_21\n      jump\t// in\n    tag_18:\n      mload(0x40)\n      tag_22\n      swap3\n      swap2\n      swap1\n      tag_23\n      jump\t// in\n    tag_22:\n      mload(0x40)\n      dup1\n      swap2\n      sub\n      swap1\n      return\n        /* \"airdrop.sol\":966:1188  function removeRecipients(address[] memory _recipients) external {... */\n    tag_6:\n      tag_24\n      0x04\n      dup1\n      calldatasize\n      sub\n      dup2\n      add\n      swap1\n      tag_25\n      swap2\n      swap1\n      tag_14\n      jump\t// in\n    tag_25:\n      tag_26\n      jump\t// in\n    tag_24:\n      stop\n        /* \"airdrop.sol\":171:196  uint public nextAirdropId */\n    tag_7:\n      tag_27\n      tag_28\n      jump\t// in\n    tag_27:\n      mload(0x40)\n      tag_29\n      swap2\n      swap1\n      tag_30\n      jump\t// in\n    tag_29:\n      mload(0x40)\n      dup1\n      swap2\n      sub\n      swap1\n      return\n        /* \"airdrop.sol\":271:313  mapping(address => bool) public recipients */\n    tag_8:\n      tag_31\n      0x04\n      dup1\n      calldatasize\n      sub\n      dup2\n      add\n      swap1\n      tag_32\n      swap2\n      swap1\n      tag_33\n      jump\t// in\n    tag_32:\n      tag_34\n      jump\t// in\n    tag_31:\n      mload(0x40)\n      tag_35\n      swap2\n      swap1\n      tag_36\n      jump\t// in\n    tag_35:\n      mload(0x40)\n      dup1\n      swap2\n      sub\n      swap1\n      return\n        /* \"airdrop.sol\":201:221  address public admin */\n    tag_9:\n      tag_37\n      tag_38\n      jump\t// in\n    tag_37:\n      mload(0x40)\n      tag_39\n      swap2\n      swap1\n      tag_40\n      jump\t// in\n    tag_39:\n      mload(0x40)\n      dup1\n      swap2\n      sub\n      swap1\n      return\n        /* \"airdrop.sol\":371:736  function addAirdrops(Airdrop[] memory _airdrops) external {... */\n    tag_10:\n      tag_41\n      0x04\n      dup1\n      calldatasize\n      sub\n      dup2\n      add\n      swap1\n      tag_42\n      swap2\n      swap1\n      tag_43\n      jump\t// in\n    tag_42:\n      tag_44\n      jump\t// in\n    tag_41:\n      stop\n        /* \"airdrop.sol\":742:960  function addRecipients(address[] memory _recipients) external {... */\n    tag_15:\n        /* \"airdrop.sol\":833:838  admin */\n      0x01\n      0x00\n      swap1\n      sload\n      swap1\n      0x0100\n      exp\n      swap1\n      div\n      0xffffffffffffffffffffffffffffffffffffffff\n      and\n        /* \"airdrop.sol\":819:838  msg.sender == admin */\n      0xffffffffffffffffffffffffffffffffffffffff\n      and\n        /* \"airdrop.sol\":819:829  msg.sender */\n      caller\n        /* \"airdrop.sol\":819:838  msg.sender == admin */\n      0xffffffffffffffffffffffffffffffffffffffff\n      and\n      eq\n        /* \"airdrop.sol\":811:853  require(msg.sender == admin, 'only admin') */\n      tag_46\n      jumpi\n      mload(0x40)\n      0x08c379a000000000000000000000000000000000000000000000000000000000\n      dup2\n      mstore\n      0x04\n      add\n      tag_47\n      swap1\n      tag_48\n      jump\t// in\n    tag_47:\n      mload(0x40)\n      dup1\n      swap2\n      sub\n      swap1\n      revert\n    tag_46:\n        /* \"airdrop.sol\":864:870  uint i */\n      0x00\n        /* \"airdrop.sol\":860:955  for(uint i = 0; i < _recipients.length; i++) {... */\n    tag_49:\n        /* \"airdrop.sol\":880:891  _recipients */\n      dup2\n        /* \"airdrop.sol\":880:898  _recipients.length */\n      mload\n        /* \"airdrop.sol\":876:877  i */\n      dup2\n        /* \"airdrop.sol\":876:898  i < _recipients.length */\n      lt\n        /* \"airdrop.sol\":860:955  for(uint i = 0; i < _recipients.length; i++) {... */\n      iszero\n      tag_50\n      jumpi\n        /* \"airdrop.sol\":943:947  true */\n      0x01\n        /* \"airdrop.sol\":914:924  recipients */\n      0x03\n        /* \"airdrop.sol\":914:940  recipients[_recipients[i]] */\n      0x00\n        /* \"airdrop.sol\":925:936  _recipients */\n      dup5\n        /* \"airdrop.sol\":937:938  i */\n      dup5\n        /* \"airdrop.sol\":925:939  _recipients[i] */\n      dup2\n      mload\n      dup2\n      lt\n      tag_52\n      jumpi\n      tag_53\n      tag_54\n      jump\t// in\n    tag_53:\n    tag_52:\n      0x20\n      mul\n      0x20\n      add\n      add\n      mload\n        /* \"airdrop.sol\":914:940  recipients[_recipients[i]] */\n      0xffffffffffffffffffffffffffffffffffffffff\n      and\n      0xffffffffffffffffffffffffffffffffffffffff\n      and\n      dup2\n      mstore\n      0x20\n      add\n      swap1\n      dup2\n      mstore\n      0x20\n      add\n      0x00\n      keccak256\n      0x00\n        /* \"airdrop.sol\":914:947  recipients[_recipients[i]] = true */\n      0x0100\n      exp\n      dup2\n      sload\n      dup2\n      0xff\n      mul\n      not\n      and\n      swap1\n      dup4\n      iszero\n      iszero\n      mul\n      or\n      swap1\n      sstore\n      pop\n        /* \"airdrop.sol\":900:903  i++ */\n      dup1\n      dup1\n      tag_55\n      swap1\n      tag_56\n      jump\t// in\n    tag_55:\n      swap2\n      pop\n      pop\n        /* \"airdrop.sol\":860:955  for(uint i = 0; i < _recipients.length; i++) {... */\n      jump(tag_49)\n    tag_50:\n      pop\n        /* \"airdrop.sol\":742:960  function addRecipients(address[] memory _recipients) external {... */\n      pop\n      jump\t// out\n        /* \"airdrop.sol\":1194:1494  function claim() external {... */\n    tag_17:\n        /* \"airdrop.sol\":1261:1265  true */\n      0x01\n        /* \"airdrop.sol\":1235:1265  recipients[msg.sender] == true */\n      iszero\n      iszero\n        /* \"airdrop.sol\":1235:1245  recipients */\n      0x03\n        /* \"airdrop.sol\":1235:1257  recipients[msg.sender] */\n      0x00\n        /* \"airdrop.sol\":1246:1256  msg.sender */\n      caller\n        /* \"airdrop.sol\":1235:1257  recipients[msg.sender] */\n      0xffffffffffffffffffffffffffffffffffffffff\n      and\n      0xffffffffffffffffffffffffffffffffffffffff\n      and\n      dup2\n      mstore\n      0x20\n      add\n      swap1\n      dup2\n      mstore\n      0x20\n      add\n      0x00\n      keccak256\n      0x00\n      swap1\n      sload\n      swap1\n      0x0100\n      exp\n      swap1\n      div\n      0xff\n      and\n        /* \"airdrop.sol\":1235:1265  recipients[msg.sender] == true */\n      iszero\n      iszero\n      eq\n        /* \"airdrop.sol\":1227:1294  require(recipients[msg.sender] == true, 'recipient not registered') */\n      tag_58\n      jumpi\n      mload(0x40)\n      0x08c379a000000000000000000000000000000000000000000000000000000000\n      dup2\n      mstore\n      0x04\n      add\n      tag_59\n      swap1\n      tag_60\n      jump\t// in\n    tag_59:\n      mload(0x40)\n      dup1\n      swap2\n      sub\n      swap1\n      revert\n    tag_58:\n        /* \"airdrop.sol\":1326:1331  false */\n      0x00\n        /* \"airdrop.sol\":1301:1311  recipients */\n      0x03\n        /* \"airdrop.sol\":1301:1323  recipients[msg.sender] */\n      0x00\n        /* \"airdrop.sol\":1312:1322  msg.sender */\n      caller\n        /* \"airdrop.sol\":1301:1323  recipients[msg.sender] */\n      0xffffffffffffffffffffffffffffffffffffffff\n      and\n      0xffffffffffffffffffffffffffffffffffffffff\n      and\n      dup2\n      mstore\n      0x20\n      add\n      swap1\n      dup2\n      mstore\n      0x20\n      add\n      0x00\n      keccak256\n      0x00\n        /* \"airdrop.sol\":1301:1331  recipients[msg.sender] = false */\n      0x0100\n      exp\n      dup2\n      sload\n      dup2\n      0xff\n      mul\n      not\n      and\n      swap1\n      dup4\n      iszero\n      iszero\n      mul\n      or\n      swap1\n      sstore\n      pop\n        /* \"airdrop.sol\":1338:1361  Airdrop storage airdrop */\n      0x00\n        /* \"airdrop.sol\":1364:1372  airdrops */\n      0x02\n        /* \"airdrop.sol\":1364:1387  airdrops[nextAirdropId] */\n      0x00\n        /* \"airdrop.sol\":1373:1386  nextAirdropId */\n      dup1\n      sload\n        /* \"airdrop.sol\":1364:1387  airdrops[nextAirdropId] */\n      dup2\n      mstore\n      0x20\n      add\n      swap1\n      dup2\n      mstore\n      0x20\n      add\n      0x00\n      keccak256\n        /* \"airdrop.sol\":1338:1387  Airdrop storage airdrop = airdrops[nextAirdropId] */\n      swap1\n      pop\n        /* \"airdrop.sol\":1402:1409  airdrop */\n      dup1\n        /* \"airdrop.sol\":1402:1413  airdrop.nft */\n      0x00\n      add\n      0x00\n      swap1\n      sload\n      swap1\n      0x0100\n      exp\n      swap1\n      div\n      0xffffffffffffffffffffffffffffffffffffffff\n      and\n        /* \"airdrop.sol\":1394:1427  IERC721(airdrop.nft).transferFrom */\n      0xffffffffffffffffffffffffffffffffffffffff\n      and\n      0x23b872dd\n        /* \"airdrop.sol\":1436:1440  this */\n      address\n        /* \"airdrop.sol\":1443:1453  msg.sender */\n      caller\n        /* \"airdrop.sol\":1455:1462  airdrop */\n      dup5\n        /* \"airdrop.sol\":1455:1465  airdrop.id */\n      0x01\n      add\n      sload\n        /* \"airdrop.sol\":1394:1466  IERC721(airdrop.nft).transferFrom(address(this), msg.sender, airdrop.id) */\n      mload(0x40)\n      dup5\n      0xffffffff\n      and\n      0xe0\n      shl\n      dup2\n      mstore\n      0x04\n      add\n      tag_61\n      swap4\n      swap3\n      swap2\n      swap1\n      tag_62\n      jump\t// in\n    tag_61:\n      0x00\n      mload(0x40)\n      dup1\n      dup4\n      sub\n      dup2\n      0x00\n      dup8\n      dup1\n      extcodesize\n      iszero\n      dup1\n      iszero\n      tag_63\n      jumpi\n      0x00\n      dup1\n      revert\n    tag_63:\n      pop\n      gas\n      call\n      iszero\n      dup1\n      iszero\n      tag_65\n      jumpi\n      returndatasize\n      0x00\n      dup1\n      returndatacopy\n      revert(0x00, returndatasize)\n    tag_65:\n      pop\n      pop\n      pop\n      pop\n        /* \"airdrop.sol\":1473:1486  nextAirdropId */\n      0x00\n      dup1\n        /* \"airdrop.sol\":1473:1488  nextAirdropId++ */\n      dup2\n      sload\n      dup1\n      swap3\n      swap2\n      swap1\n      tag_66\n      swap1\n      tag_56\n      jump\t// in\n    tag_66:\n      swap2\n      swap1\n      pop\n      sstore\n      pop\n        /* \"airdrop.sol\":1220:1494  {... */\n      pop\n        /* \"airdrop.sol\":1194:1494  function claim() external {... */\n      jump\t// out\n        /* \"airdrop.sol\":226:266  mapping(uint => Airdrop) public airdrops */\n    tag_21:\n      mstore(0x20, 0x02)\n      dup1\n      0x00\n      mstore\n      keccak256(0x00, 0x40)\n      0x00\n      swap2\n      pop\n      swap1\n      pop\n      dup1\n      0x00\n      add\n      0x00\n      swap1\n      sload\n      swap1\n      0x0100\n      exp\n      swap1\n      div\n      0xffffffffffffffffffffffffffffffffffffffff\n      and\n      swap1\n      dup1\n      0x01\n      add\n      sload\n      swap1\n      pop\n      dup3\n      jump\t// out\n        /* \"airdrop.sol\":966:1188  function removeRecipients(address[] memory _recipients) external {... */\n    tag_26:\n        /* \"airdrop.sol\":1060:1065  admin */\n      0x01\n      0x00\n      swap1\n      sload\n      swap1\n      0x0100\n      exp\n      swap1\n      div\n      0xffffffffffffffffffffffffffffffffffffffff\n      and\n        /* \"airdrop.sol\":1046:1065  msg.sender == admin */\n      0xffffffffffffffffffffffffffffffffffffffff\n      and\n        /* \"airdrop.sol\":1046:1056  msg.sender */\n      caller\n        /* \"airdrop.sol\":1046:1065  msg.sender == admin */\n      0xffffffffffffffffffffffffffffffffffffffff\n      and\n      eq\n        /* \"airdrop.sol\":1038:1080  require(msg.sender == admin, 'only admin') */\n      tag_68\n      jumpi\n      mload(0x40)\n      0x08c379a000000000000000000000000000000000000000000000000000000000\n      dup2\n      mstore\n      0x04\n      add\n      tag_69\n      swap1\n      tag_48\n      jump\t// in\n    tag_69:\n      mload(0x40)\n      dup1\n      swap2\n      sub\n      swap1\n      revert\n    tag_68:\n        /* \"airdrop.sol\":1091:1097  uint i */\n      0x00\n        /* \"airdrop.sol\":1087:1183  for(uint i = 0; i < _recipients.length; i++) {... */\n    tag_70:\n        /* \"airdrop.sol\":1107:1118  _recipients */\n      dup2\n        /* \"airdrop.sol\":1107:1125  _recipients.length */\n      mload\n        /* \"airdrop.sol\":1103:1104  i */\n      dup2\n        /* \"airdrop.sol\":1103:1125  i < _recipients.length */\n      lt\n        /* \"airdrop.sol\":1087:1183  for(uint i = 0; i < _recipients.length; i++) {... */\n      iszero\n      tag_71\n      jumpi\n        /* \"airdrop.sol\":1170:1175  false */\n      0x00\n        /* \"airdrop.sol\":1141:1151  recipients */\n      0x03\n        /* \"airdrop.sol\":1141:1167  recipients[_recipients[i]] */\n      0x00\n        /* \"airdrop.sol\":1152:1163  _recipients */\n      dup5\n        /* \"airdrop.sol\":1164:1165  i */\n      dup5\n        /* \"airdrop.sol\":1152:1166  _recipients[i] */\n      dup2\n      mload\n      dup2\n      lt\n      tag_73\n      jumpi\n      tag_74\n      tag_54\n      jump\t// in\n    tag_74:\n    tag_73:\n      0x20\n      mul\n      0x20\n      add\n      add\n      mload\n        /* \"airdrop.sol\":1141:1167  recipients[_recipients[i]] */\n      0xffffffffffffffffffffffffffffffffffffffff\n      and\n      0xffffffffffffffffffffffffffffffffffffffff\n      and\n      dup2\n      mstore\n      0x20\n      add\n      swap1\n      dup2\n      mstore\n      0x20\n      add\n      0x00\n      keccak256\n      0x00\n        /* \"airdrop.sol\":1141:1175  recipients[_recipients[i]] = false */\n      0x0100\n      exp\n      dup2\n      sload\n      dup2\n      0xff\n      mul\n      not\n      and\n      swap1\n      dup4\n      iszero\n      iszero\n      mul\n      or\n      swap1\n      sstore\n      pop\n        /* \"airdrop.sol\":1127:1130  i++ */\n      dup1\n      dup1\n      tag_75\n      swap1\n      tag_56\n      jump\t// in\n    tag_75:\n      swap2\n      pop\n      pop\n        /* \"airdrop.sol\":1087:1183  for(uint i = 0; i < _recipients.length; i++) {... */\n      jump(tag_70)\n    tag_71:\n      pop\n        /* \"airdrop.sol\":966:1188  function removeRecipients(address[] memory _recipients) external {... */\n      pop\n      jump\t// out\n        /* \"airdrop.sol\":171:196  uint public nextAirdropId */\n    tag_28:\n      sload(0x00)\n      dup2\n      jump\t// out\n        /* \"airdrop.sol\":271:313  mapping(address => bool) public recipients */\n    tag_34:\n      mstore(0x20, 0x03)\n      dup1\n      0x00\n      mstore\n      keccak256(0x00, 0x40)\n      0x00\n      swap2\n      pop\n      sload\n      swap1\n      0x0100\n      exp\n      swap1\n      div\n      0xff\n      and\n      dup2\n      jump\t// out\n        /* \"airdrop.sol\":201:221  address public admin */\n    tag_38:\n      0x01\n      0x00\n      swap1\n      sload\n      swap1\n      0x0100\n      exp\n      swap1\n      div\n      0xffffffffffffffffffffffffffffffffffffffff\n      and\n      dup2\n      jump\t// out\n        /* \"airdrop.sol\":371:736  function addAirdrops(Airdrop[] memory _airdrops) external {... */\n    tag_44:\n        /* \"airdrop.sol\":436:455  uint _nextAirdropId */\n      0x00\n        /* \"airdrop.sol\":458:471  nextAirdropId */\n      dup1\n      sload\n        /* \"airdrop.sol\":436:471  uint _nextAirdropId = nextAirdropId */\n      swap1\n      pop\n        /* \"airdrop.sol\":482:488  uint i */\n      0x00\n        /* \"airdrop.sol\":478:731  for(uint i = 0; i < _airdrops.length; i++) {... */\n    tag_77:\n        /* \"airdrop.sol\":498:507  _airdrops */\n      dup3\n        /* \"airdrop.sol\":498:514  _airdrops.length */\n      mload\n        /* \"airdrop.sol\":494:495  i */\n      dup2\n        /* \"airdrop.sol\":494:514  i < _airdrops.length */\n      lt\n        /* \"airdrop.sol\":478:731  for(uint i = 0; i < _airdrops.length; i++) {... */\n      iszero\n      tag_78\n      jumpi\n        /* \"airdrop.sol\":557:566  _airdrops */\n      dup3\n        /* \"airdrop.sol\":567:568  i */\n      dup2\n        /* \"airdrop.sol\":557:569  _airdrops[i] */\n      dup2\n      mload\n      dup2\n      lt\n      tag_80\n      jumpi\n      tag_81\n      tag_54\n      jump\t// in\n    tag_81:\n    tag_80:\n      0x20\n      mul\n      0x20\n      add\n      add\n      mload\n        /* \"airdrop.sol\":530:538  airdrops */\n      0x02\n        /* \"airdrop.sol\":530:554  airdrops[_nextAirdropId] */\n      0x00\n        /* \"airdrop.sol\":539:553  _nextAirdropId */\n      dup5\n        /* \"airdrop.sol\":530:554  airdrops[_nextAirdropId] */\n      dup2\n      mstore\n      0x20\n      add\n      swap1\n      dup2\n      mstore\n      0x20\n      add\n      0x00\n      keccak256\n        /* \"airdrop.sol\":530:569  airdrops[_nextAirdropId] = _airdrops[i] */\n      0x00\n      dup3\n      add\n      mload\n      dup2\n      0x00\n      add\n      exp(0x0100, 0x00)\n      dup2\n      sload\n      dup2\n      0xffffffffffffffffffffffffffffffffffffffff\n      mul\n      not\n      and\n      swap1\n      dup4\n      0xffffffffffffffffffffffffffffffffffffffff\n      and\n      mul\n      or\n      swap1\n      sstore\n      pop\n      0x20\n      dup3\n      add\n      mload\n      dup2\n      0x01\n      add\n      sstore\n      swap1\n      pop\n      pop\n        /* \"airdrop.sol\":586:595  _airdrops */\n      dup3\n        /* \"airdrop.sol\":596:597  i */\n      dup2\n        /* \"airdrop.sol\":586:598  _airdrops[i] */\n      dup2\n      mload\n      dup2\n      lt\n      tag_82\n      jumpi\n      tag_83\n      tag_54\n      jump\t// in\n    tag_83:\n    tag_82:\n      0x20\n      mul\n      0x20\n      add\n      add\n      mload\n        /* \"airdrop.sol\":586:602  _airdrops[i].nft */\n      0x00\n      add\n      mload\n        /* \"airdrop.sol\":578:616  IERC721(_airdrops[i].nft).transferFrom */\n      0xffffffffffffffffffffffffffffffffffffffff\n      and\n      0x23b872dd\n        /* \"airdrop.sol\":627:637  msg.sender */\n      caller\n        /* \"airdrop.sol\":657:661  this */\n      address\n        /* \"airdrop.sol\":674:683  _airdrops */\n      dup7\n        /* \"airdrop.sol\":684:685  i */\n      dup6\n        /* \"airdrop.sol\":674:686  _airdrops[i] */\n      dup2\n      mload\n      dup2\n      lt\n      tag_84\n      jumpi\n      tag_85\n      tag_54\n      jump\t// in\n    tag_85:\n    tag_84:\n      0x20\n      mul\n      0x20\n      add\n      add\n      mload\n        /* \"airdrop.sol\":674:689  _airdrops[i].id */\n      0x20\n      add\n      mload\n        /* \"airdrop.sol\":578:698  IERC721(_airdrops[i].nft).transferFrom(... */\n      mload(0x40)\n      dup5\n      0xffffffff\n      and\n      0xe0\n      shl\n      dup2\n      mstore\n      0x04\n      add\n      tag_86\n      swap4\n      swap3\n      swap2\n      swap1\n      tag_62\n      jump\t// in\n    tag_86:\n      0x00\n      mload(0x40)\n      dup1\n      dup4\n      sub\n      dup2\n      0x00\n      dup8\n      dup1\n      extcodesize\n      iszero\n      dup1\n      iszero\n      tag_87\n      jumpi\n      0x00\n      dup1\n      revert\n    tag_87:\n      pop\n      gas\n      call\n      iszero\n      dup1\n      iszero\n      tag_89\n      jumpi\n      returndatasize\n      0x00\n      dup1\n      returndatacopy\n      revert(0x00, returndatasize)\n    tag_89:\n      pop\n      pop\n      pop\n      pop\n        /* \"airdrop.sol\":707:723  _nextAirdropId++ */\n      dup2\n      dup1\n      tag_90\n      swap1\n      tag_56\n      jump\t// in\n    tag_90:\n      swap3\n      pop\n      pop\n        /* \"airdrop.sol\":516:519  i++ */\n      dup1\n      dup1\n      tag_91\n      swap1\n      tag_56\n      jump\t// in\n    tag_91:\n      swap2\n      pop\n      pop\n        /* \"airdrop.sol\":478:731  for(uint i = 0; i < _airdrops.length; i++) {... */\n      jump(tag_77)\n    tag_78:\n      pop\n        /* \"airdrop.sol\":429:736  {... */\n      pop\n        /* \"airdrop.sol\":371:736  function addAirdrops(Airdrop[] memory _airdrops) external {... */\n      pop\n      jump\t// out\n        /* \"#utility.yul\":7:82   */\n    tag_92:\n        /* \"#utility.yul\":40:46   */\n      0x00\n        /* \"#utility.yul\":73:75   */\n      0x40\n        /* \"#utility.yul\":67:76   */\n      mload\n        /* \"#utility.yul\":57:76   */\n      swap1\n      pop\n        /* \"#utility.yul\":7:82   */\n      swap1\n      jump\t// out\n        /* \"#utility.yul\":88:205   */\n    tag_93:\n        /* \"#utility.yul\":197:198   */\n      0x00\n        /* \"#utility.yul\":194:195   */\n      dup1\n        /* \"#utility.yul\":187:199   */\n      revert\n        /* \"#utility.yul\":211:328   */\n    tag_94:\n        /* \"#utility.yul\":320:321   */\n      0x00\n        /* \"#utility.yul\":317:318   */\n      dup1\n        /* \"#utility.yul\":310:322   */\n      revert\n        /* \"#utility.yul\":334:451   */\n    tag_95:\n        /* \"#utility.yul\":443:444   */\n      0x00\n        /* \"#utility.yul\":440:441   */\n      dup1\n        /* \"#utility.yul\":433:445   */\n      revert\n        /* \"#utility.yul\":457:559   */\n    tag_96:\n        /* \"#utility.yul\":498:504   */\n      0x00\n        /* \"#utility.yul\":549:551   */\n      0x1f\n        /* \"#utility.yul\":545:552   */\n      not\n        /* \"#utility.yul\":540:542   */\n      0x1f\n        /* \"#utility.yul\":533:538   */\n      dup4\n        /* \"#utility.yul\":529:543   */\n      add\n        /* \"#utility.yul\":525:553   */\n      and\n        /* \"#utility.yul\":515:553   */\n      swap1\n      pop\n        /* \"#utility.yul\":457:559   */\n      swap2\n      swap1\n      pop\n      jump\t// out\n        /* \"#utility.yul\":565:745   */\n    tag_97:\n        /* \"#utility.yul\":613:690   */\n      0x4e487b7100000000000000000000000000000000000000000000000000000000\n        /* \"#utility.yul\":610:611   */\n      0x00\n        /* \"#utility.yul\":603:691   */\n      mstore\n        /* \"#utility.yul\":710:714   */\n      0x41\n        /* \"#utility.yul\":707:708   */\n      0x04\n        /* \"#utility.yul\":700:715   */\n      mstore\n        /* \"#utility.yul\":734:738   */\n      0x24\n        /* \"#utility.yul\":731:732   */\n      0x00\n        /* \"#utility.yul\":724:739   */\n      revert\n        /* \"#utility.yul\":751:1032   */\n    tag_98:\n        /* \"#utility.yul\":834:861   */\n      tag_135\n        /* \"#utility.yul\":856:860   */\n      dup3\n        /* \"#utility.yul\":834:861   */\n      tag_96\n      jump\t// in\n    tag_135:\n        /* \"#utility.yul\":826:832   */\n      dup2\n        /* \"#utility.yul\":822:862   */\n      add\n        /* \"#utility.yul\":964:970   */\n      dup2\n        /* \"#utility.yul\":952:962   */\n      dup2\n        /* \"#utility.yul\":949:971   */\n      lt\n        /* \"#utility.yul\":928:946   */\n      0xffffffffffffffff\n        /* \"#utility.yul\":916:926   */\n      dup3\n        /* \"#utility.yul\":913:947   */\n      gt\n        /* \"#utility.yul\":910:972   */\n      or\n        /* \"#utility.yul\":907:995   */\n      iszero\n      tag_136\n      jumpi\n        /* \"#utility.yul\":975:993   */\n      tag_137\n      tag_97\n      jump\t// in\n    tag_137:\n        /* \"#utility.yul\":907:995   */\n    tag_136:\n        /* \"#utility.yul\":1015:1025   */\n      dup1\n        /* \"#utility.yul\":1011:1013   */\n      0x40\n        /* \"#utility.yul\":1004:1026   */\n      mstore\n        /* \"#utility.yul\":794:1032   */\n      pop\n        /* \"#utility.yul\":751:1032   */\n      pop\n      pop\n      jump\t// out\n        /* \"#utility.yul\":1038:1167   */\n    tag_99:\n        /* \"#utility.yul\":1072:1078   */\n      0x00\n        /* \"#utility.yul\":1099:1119   */\n      tag_139\n      tag_92\n      jump\t// in\n    tag_139:\n        /* \"#utility.yul\":1089:1119   */\n      swap1\n      pop\n        /* \"#utility.yul\":1128:1161   */\n      tag_140\n        /* \"#utility.yul\":1156:1160   */\n      dup3\n        /* \"#utility.yul\":1148:1154   */\n      dup3\n        /* \"#utility.yul\":1128:1161   */\n      tag_98\n      jump\t// in\n    tag_140:\n        /* \"#utility.yul\":1038:1167   */\n      swap2\n      swap1\n      pop\n      jump\t// out\n        /* \"#utility.yul\":1173:1484   */\n    tag_100:\n        /* \"#utility.yul\":1250:1254   */\n      0x00\n        /* \"#utility.yul\":1340:1358   */\n      0xffffffffffffffff\n        /* \"#utility.yul\":1332:1338   */\n      dup3\n        /* \"#utility.yul\":1329:1359   */\n      gt\n        /* \"#utility.yul\":1326:1382   */\n      iszero\n      tag_142\n      jumpi\n        /* \"#utility.yul\":1362:1380   */\n      tag_143\n      tag_97\n      jump\t// in\n    tag_143:\n        /* \"#utility.yul\":1326:1382   */\n    tag_142:\n        /* \"#utility.yul\":1412:1416   */\n      0x20\n        /* \"#utility.yul\":1404:1410   */\n      dup3\n        /* \"#utility.yul\":1400:1417   */\n      mul\n        /* \"#utility.yul\":1392:1417   */\n      swap1\n      pop\n        /* \"#utility.yul\":1472:1476   */\n      0x20\n        /* \"#utility.yul\":1466:1470   */\n      dup2\n        /* \"#utility.yul\":1462:1477   */\n      add\n        /* \"#utility.yul\":1454:1477   */\n      swap1\n      pop\n        /* \"#utility.yul\":1173:1484   */\n      swap2\n      swap1\n      pop\n      jump\t// out\n        /* \"#utility.yul\":1490:1607   */\n    tag_101:\n        /* \"#utility.yul\":1599:1600   */\n      0x00\n        /* \"#utility.yul\":1596:1597   */\n      dup1\n        /* \"#utility.yul\":1589:1601   */\n      revert\n        /* \"#utility.yul\":1613:1739   */\n    tag_102:\n        /* \"#utility.yul\":1650:1657   */\n      0x00\n        /* \"#utility.yul\":1690:1732   */\n      0xffffffffffffffffffffffffffffffffffffffff\n        /* \"#utility.yul\":1683:1688   */\n      dup3\n        /* \"#utility.yul\":1679:1733   */\n      and\n        /* \"#utility.yul\":1668:1733   */\n      swap1\n      pop\n        /* \"#utility.yul\":1613:1739   */\n      swap2\n      swap1\n      pop\n      jump\t// out\n        /* \"#utility.yul\":1745:1841   */\n    tag_103:\n        /* \"#utility.yul\":1782:1789   */\n      0x00\n        /* \"#utility.yul\":1811:1835   */\n      tag_147\n        /* \"#utility.yul\":1829:1834   */\n      dup3\n        /* \"#utility.yul\":1811:1835   */\n      tag_102\n      jump\t// in\n    tag_147:\n        /* \"#utility.yul\":1800:1835   */\n      swap1\n      pop\n        /* \"#utility.yul\":1745:1841   */\n      swap2\n      swap1\n      pop\n      jump\t// out\n        /* \"#utility.yul\":1847:1969   */\n    tag_104:\n        /* \"#utility.yul\":1920:1944   */\n      tag_149\n        /* \"#utility.yul\":1938:1943   */\n      dup2\n        /* \"#utility.yul\":1920:1944   */\n      tag_103\n      jump\t// in\n    tag_149:\n        /* \"#utility.yul\":1913:1918   */\n      dup2\n        /* \"#utility.yul\":1910:1945   */\n      eq\n        /* \"#utility.yul\":1900:1963   */\n      tag_150\n      jumpi\n        /* \"#utility.yul\":1959:1960   */\n      0x00\n        /* \"#utility.yul\":1956:1957   */\n      dup1\n        /* \"#utility.yul\":1949:1961   */\n      revert\n        /* \"#utility.yul\":1900:1963   */\n    tag_150:\n        /* \"#utility.yul\":1847:1969   */\n      pop\n      jump\t// out\n        /* \"#utility.yul\":1975:2114   */\n    tag_105:\n        /* \"#utility.yul\":2021:2026   */\n      0x00\n        /* \"#utility.yul\":2059:2065   */\n      dup2\n        /* \"#utility.yul\":2046:2066   */\n      calldataload\n        /* \"#utility.yul\":2037:2066   */\n      swap1\n      pop\n        /* \"#utility.yul\":2075:2108   */\n      tag_152\n        /* \"#utility.yul\":2102:2107   */\n      dup2\n        /* \"#utility.yul\":2075:2108   */\n      tag_104\n      jump\t// in\n    tag_152:\n        /* \"#utility.yul\":1975:2114   */\n      swap3\n      swap2\n      pop\n      pop\n      jump\t// out\n        /* \"#utility.yul\":2137:2847   */\n    tag_106:\n        /* \"#utility.yul\":2233:2238   */\n      0x00\n        /* \"#utility.yul\":2258:2339   */\n      tag_154\n        /* \"#utility.yul\":2274:2338   */\n      tag_155\n        /* \"#utility.yul\":2331:2337   */\n      dup5\n        /* \"#utility.yul\":2274:2338   */\n      tag_100\n      jump\t// in\n    tag_155:\n        /* \"#utility.yul\":2258:2339   */\n      tag_99\n      jump\t// in\n    tag_154:\n        /* \"#utility.yul\":2249:2339   */\n      swap1\n      pop\n        /* \"#utility.yul\":2359:2364   */\n      dup1\n        /* \"#utility.yul\":2388:2394   */\n      dup4\n        /* \"#utility.yul\":2381:2386   */\n      dup3\n        /* \"#utility.yul\":2374:2395   */\n      mstore\n        /* \"#utility.yul\":2422:2426   */\n      0x20\n        /* \"#utility.yul\":2415:2420   */\n      dup3\n        /* \"#utility.yul\":2411:2427   */\n      add\n        /* \"#utility.yul\":2404:2427   */\n      swap1\n      pop\n        /* \"#utility.yul\":2475:2479   */\n      0x20\n        /* \"#utility.yul\":2467:2473   */\n      dup5\n        /* \"#utility.yul\":2463:2480   */\n      mul\n        /* \"#utility.yul\":2455:2461   */\n      dup4\n        /* \"#utility.yul\":2451:2481   */\n      add\n        /* \"#utility.yul\":2504:2507   */\n      dup6\n        /* \"#utility.yul\":2496:2502   */\n      dup2\n        /* \"#utility.yul\":2493:2508   */\n      gt\n        /* \"#utility.yul\":2490:2612   */\n      iszero\n      tag_156\n      jumpi\n        /* \"#utility.yul\":2523:2602   */\n      tag_157\n      tag_101\n      jump\t// in\n    tag_157:\n        /* \"#utility.yul\":2490:2612   */\n    tag_156:\n        /* \"#utility.yul\":2638:2644   */\n      dup4\n        /* \"#utility.yul\":2621:2841   */\n    tag_158:\n        /* \"#utility.yul\":2655:2661   */\n      dup2\n        /* \"#utility.yul\":2650:2653   */\n      dup2\n        /* \"#utility.yul\":2647:2662   */\n      lt\n        /* \"#utility.yul\":2621:2841   */\n      iszero\n      tag_160\n      jumpi\n        /* \"#utility.yul\":2730:2733   */\n      dup1\n        /* \"#utility.yul\":2759:2796   */\n      tag_161\n        /* \"#utility.yul\":2792:2795   */\n      dup9\n        /* \"#utility.yul\":2780:2790   */\n      dup3\n        /* \"#utility.yul\":2759:2796   */\n      tag_105\n      jump\t// in\n    tag_161:\n        /* \"#utility.yul\":2754:2757   */\n      dup5\n        /* \"#utility.yul\":2747:2797   */\n      mstore\n        /* \"#utility.yul\":2826:2830   */\n      0x20\n        /* \"#utility.yul\":2821:2824   */\n      dup5\n        /* \"#utility.yul\":2817:2831   */\n      add\n        /* \"#utility.yul\":2810:2831   */\n      swap4\n      pop\n        /* \"#utility.yul\":2697:2841   */\n      pop\n        /* \"#utility.yul\":2681:2685   */\n      0x20\n        /* \"#utility.yul\":2676:2679   */\n      dup2\n        /* \"#utility.yul\":2672:2686   */\n      add\n        /* \"#utility.yul\":2665:2686   */\n      swap1\n      pop\n        /* \"#utility.yul\":2621:2841   */\n      jump(tag_158)\n    tag_160:\n        /* \"#utility.yul\":2625:2646   */\n      pop\n        /* \"#utility.yul\":2239:2847   */\n      pop\n      pop\n        /* \"#utility.yul\":2137:2847   */\n      swap4\n      swap3\n      pop\n      pop\n      pop\n      jump\t// out\n        /* \"#utility.yul\":2870:3240   */\n    tag_107:\n        /* \"#utility.yul\":2941:2946   */\n      0x00\n        /* \"#utility.yul\":2990:2993   */\n      dup3\n        /* \"#utility.yul\":2983:2987   */\n      0x1f\n        /* \"#utility.yul\":2975:2981   */\n      dup4\n        /* \"#utility.yul\":2971:2988   */\n      add\n        /* \"#utility.yul\":2967:2994   */\n      slt\n        /* \"#utility.yul\":2957:3079   */\n      tag_163\n      jumpi\n        /* \"#utility.yul\":2998:3077   */\n      tag_164\n      tag_95\n      jump\t// in\n    tag_164:\n        /* \"#utility.yul\":2957:3079   */\n    tag_163:\n        /* \"#utility.yul\":3115:3121   */\n      dup2\n        /* \"#utility.yul\":3102:3122   */\n      calldataload\n        /* \"#utility.yul\":3140:3234   */\n      tag_165\n        /* \"#utility.yul\":3230:3233   */\n      dup5\n        /* \"#utility.yul\":3222:3228   */\n      dup3\n        /* \"#utility.yul\":3215:3219   */\n      0x20\n        /* \"#utility.yul\":3207:3213   */\n      dup7\n        /* \"#utility.yul\":3203:3220   */\n      add\n        /* \"#utility.yul\":3140:3234   */\n      tag_106\n      jump\t// in\n    tag_165:\n        /* \"#utility.yul\":3131:3234   */\n      swap2\n      pop\n        /* \"#utility.yul\":2947:3240   */\n      pop\n        /* \"#utility.yul\":2870:3240   */\n      swap3\n      swap2\n      pop\n      pop\n      jump\t// out\n        /* \"#utility.yul\":3246:3785   */\n    tag_14:\n        /* \"#utility.yul\":3330:3336   */\n      0x00\n        /* \"#utility.yul\":3379:3381   */\n      0x20\n        /* \"#utility.yul\":3367:3376   */\n      dup3\n        /* \"#utility.yul\":3358:3365   */\n      dup5\n        /* \"#utility.yul\":3354:3377   */\n      sub\n        /* \"#utility.yul\":3350:3382   */\n      slt\n        /* \"#utility.yul\":3347:3466   */\n      iszero\n      tag_167\n      jumpi\n        /* \"#utility.yul\":3385:3464   */\n      tag_168\n      tag_93\n      jump\t// in\n    tag_168:\n        /* \"#utility.yul\":3347:3466   */\n    tag_167:\n        /* \"#utility.yul\":3533:3534   */\n      0x00\n        /* \"#utility.yul\":3522:3531   */\n      dup3\n        /* \"#utility.yul\":3518:3535   */\n      add\n        /* \"#utility.yul\":3505:3536   */\n      calldataload\n        /* \"#utility.yul\":3563:3581   */\n      0xffffffffffffffff\n        /* \"#utility.yul\":3555:3561   */\n      dup2\n        /* \"#utility.yul\":3552:3582   */\n      gt\n        /* \"#utility.yul\":3549:3666   */\n      iszero\n      tag_169\n      jumpi\n        /* \"#utility.yul\":3585:3664   */\n      tag_170\n      tag_94\n      jump\t// in\n    tag_170:\n        /* \"#utility.yul\":3549:3666   */\n    tag_169:\n        /* \"#utility.yul\":3690:3768   */\n      tag_171\n        /* \"#utility.yul\":3760:3767   */\n      dup5\n        /* \"#utility.yul\":3751:3757   */\n      dup3\n        /* \"#utility.yul\":3740:3749   */\n      dup6\n        /* \"#utility.yul\":3736:3758   */\n      add\n        /* \"#utility.yul\":3690:3768   */\n      tag_107\n      jump\t// in\n    tag_171:\n        /* \"#utility.yul\":3680:3768   */\n      swap2\n      pop\n        /* \"#utility.yul\":3476:3778   */\n      pop\n        /* \"#utility.yul\":3246:3785   */\n      swap3\n      swap2\n      pop\n      pop\n      jump\t// out\n        /* \"#utility.yul\":3791:3868   */\n    tag_108:\n        /* \"#utility.yul\":3828:3835   */\n      0x00\n        /* \"#utility.yul\":3857:3862   */\n      dup2\n        /* \"#utility.yul\":3846:3862   */\n      swap1\n      pop\n        /* \"#utility.yul\":3791:3868   */\n      swap2\n      swap1\n      pop\n      jump\t// out\n        /* \"#utility.yul\":3874:3996   */\n    tag_109:\n        /* \"#utility.yul\":3947:3971   */\n      tag_174\n        /* \"#utility.yul\":3965:3970   */\n      dup2\n        /* \"#utility.yul\":3947:3971   */\n      tag_108\n      jump\t// in\n    tag_174:\n        /* \"#utility.yul\":3940:3945   */\n      dup2\n        /* \"#utility.yul\":3937:3972   */\n      eq\n        /* \"#utility.yul\":3927:3990   */\n      tag_175\n      jumpi\n        /* \"#utility.yul\":3986:3987   */\n      0x00\n        /* \"#utility.yul\":3983:3984   */\n      dup1\n        /* \"#utility.yul\":3976:3988   */\n      revert\n        /* \"#utility.yul\":3927:3990   */\n    tag_175:\n        /* \"#utility.yul\":3874:3996   */\n      pop\n      jump\t// out\n        /* \"#utility.yul\":4002:4141   */\n    tag_110:\n        /* \"#utility.yul\":4048:4053   */\n      0x00\n        /* \"#utility.yul\":4086:4092   */\n      dup2\n        /* \"#utility.yul\":4073:4093   */\n      calldataload\n        /* \"#utility.yul\":4064:4093   */\n      swap1\n      pop\n        /* \"#utility.yul\":4102:4135   */\n      tag_177\n        /* \"#utility.yul\":4129:4134   */\n      dup2\n        /* \"#utility.yul\":4102:4135   */\n      tag_109\n      jump\t// in\n    tag_177:\n        /* \"#utility.yul\":4002:4141   */\n      swap3\n      swap2\n      pop\n      pop\n      jump\t// out\n        /* \"#utility.yul\":4147:4476   */\n    tag_20:\n        /* \"#utility.yul\":4206:4212   */\n      0x00\n        /* \"#utility.yul\":4255:4257   */\n      0x20\n        /* \"#utility.yul\":4243:4252   */\n      dup3\n        /* \"#utility.yul\":4234:4241   */\n      dup5\n        /* \"#utility.yul\":4230:4253   */\n      sub\n        /* \"#utility.yul\":4226:4258   */\n      slt\n        /* \"#utility.yul\":4223:4342   */\n      iszero\n      tag_179\n      jumpi\n        /* \"#utility.yul\":4261:4340   */\n      tag_180\n      tag_93\n      jump\t// in\n    tag_180:\n        /* \"#utility.yul\":4223:4342   */\n    tag_179:\n        /* \"#utility.yul\":4381:4382   */\n      0x00\n        /* \"#utility.yul\":4406:4459   */\n      tag_181\n        /* \"#utility.yul\":4451:4458   */\n      dup5\n        /* \"#utility.yul\":4442:4448   */\n      dup3\n        /* \"#utility.yul\":4431:4440   */\n      dup6\n        /* \"#utility.yul\":4427:4449   */\n      add\n        /* \"#utility.yul\":4406:4459   */\n      tag_110\n      jump\t// in\n    tag_181:\n        /* \"#utility.yul\":4396:4459   */\n      swap2\n      pop\n        /* \"#utility.yul\":4352:4469   */\n      pop\n        /* \"#utility.yul\":4147:4476   */\n      swap3\n      swap2\n      pop\n      pop\n      jump\t// out\n        /* \"#utility.yul\":4482:4600   */\n    tag_111:\n        /* \"#utility.yul\":4569:4593   */\n      tag_183\n        /* \"#utility.yul\":4587:4592   */\n      dup2\n        /* \"#utility.yul\":4569:4593   */\n      tag_103\n      jump\t// in\n    tag_183:\n        /* \"#utility.yul\":4564:4567   */\n      dup3\n        /* \"#utility.yul\":4557:4594   */\n      mstore\n        /* \"#utility.yul\":4482:4600   */\n      pop\n      pop\n      jump\t// out\n        /* \"#utility.yul\":4606:4724   */\n    tag_112:\n        /* \"#utility.yul\":4693:4717   */\n      tag_185\n        /* \"#utility.yul\":4711:4716   */\n      dup2\n        /* \"#utility.yul\":4693:4717   */\n      tag_108\n      jump\t// in\n    tag_185:\n        /* \"#utility.yul\":4688:4691   */\n      dup3\n        /* \"#utility.yul\":4681:4718   */\n      mstore\n        /* \"#utility.yul\":4606:4724   */\n      pop\n      pop\n      jump\t// out\n        /* \"#utility.yul\":4730:5062   */\n    tag_23:\n        /* \"#utility.yul\":4851:4855   */\n      0x00\n        /* \"#utility.yul\":4889:4891   */\n      0x40\n        /* \"#utility.yul\":4878:4887   */\n      dup3\n        /* \"#utility.yul\":4874:4892   */\n      add\n        /* \"#utility.yul\":4866:4892   */\n      swap1\n      pop\n        /* \"#utility.yul\":4902:4973   */\n      tag_187\n        /* \"#utility.yul\":4970:4971   */\n      0x00\n        /* \"#utility.yul\":4959:4968   */\n      dup4\n        /* \"#utility.yul\":4955:4972   */\n      add\n        /* \"#utility.yul\":4946:4952   */\n      dup6\n        /* \"#utility.yul\":4902:4973   */\n      tag_111\n      jump\t// in\n    tag_187:\n        /* \"#utility.yul\":4983:5055   */\n      tag_188\n        /* \"#utility.yul\":5051:5053   */\n      0x20\n        /* \"#utility.yul\":5040:5049   */\n      dup4\n        /* \"#utility.yul\":5036:5054   */\n      add\n        /* \"#utility.yul\":5027:5033   */\n      dup5\n        /* \"#utility.yul\":4983:5055   */\n      tag_112\n      jump\t// in\n    tag_188:\n        /* \"#utility.yul\":4730:5062   */\n      swap4\n      swap3\n      pop\n      pop\n      pop\n      jump\t// out\n        /* \"#utility.yul\":5068:5290   */\n    tag_30:\n        /* \"#utility.yul\":5161:5165   */\n      0x00\n        /* \"#utility.yul\":5199:5201   */\n      0x20\n        /* \"#utility.yul\":5188:5197   */\n      dup3\n        /* \"#utility.yul\":5184:5202   */\n      add\n        /* \"#utility.yul\":5176:5202   */\n      swap1\n      pop\n        /* \"#utility.yul\":5212:5283   */\n      tag_190\n        /* \"#utility.yul\":5280:5281   */\n      0x00\n        /* \"#utility.yul\":5269:5278   */\n      dup4\n        /* \"#utility.yul\":5265:5282   */\n      add\n        /* \"#utility.yul\":5256:5262   */\n      dup5\n        /* \"#utility.yul\":5212:5283   */\n      tag_112\n      jump\t// in\n    tag_190:\n        /* \"#utility.yul\":5068:5290   */\n      swap3\n      swap2\n      pop\n      pop\n      jump\t// out\n        /* \"#utility.yul\":5296:5625   */\n    tag_33:\n        /* \"#utility.yul\":5355:5361   */\n      0x00\n        /* \"#utility.yul\":5404:5406   */\n      0x20\n        /* \"#utility.yul\":5392:5401   */\n      dup3\n        /* \"#utility.yul\":5383:5390   */\n      dup5\n        /* \"#utility.yul\":5379:5402   */\n      sub\n        /* \"#utility.yul\":5375:5407   */\n      slt\n        /* \"#utility.yul\":5372:5491   */\n      iszero\n      tag_192\n      jumpi\n        /* \"#utility.yul\":5410:5489   */\n      tag_193\n      tag_93\n      jump\t// in\n    tag_193:\n        /* \"#utility.yul\":5372:5491   */\n    tag_192:\n        /* \"#utility.yul\":5530:5531   */\n      0x00\n        /* \"#utility.yul\":5555:5608   */\n      tag_194\n        /* \"#utility.yul\":5600:5607   */\n      dup5\n        /* \"#utility.yul\":5591:5597   */\n      dup3\n        /* \"#utility.yul\":5580:5589   */\n      dup6\n        /* \"#utility.yul\":5576:5598   */\n      add\n        /* \"#utility.yul\":5555:5608   */\n      tag_105\n      jump\t// in\n    tag_194:\n        /* \"#utility.yul\":5545:5608   */\n      swap2\n      pop\n        /* \"#utility.yul\":5501:5618   */\n      pop\n        /* \"#utility.yul\":5296:5625   */\n      swap3\n      swap2\n      pop\n      pop\n      jump\t// out\n        /* \"#utility.yul\":5631:5721   */\n    tag_113:\n        /* \"#utility.yul\":5665:5672   */\n      0x00\n        /* \"#utility.yul\":5708:5713   */\n      dup2\n        /* \"#utility.yul\":5701:5714   */\n      iszero\n        /* \"#utility.yul\":5694:5715   */\n      iszero\n        /* \"#utility.yul\":5683:5715   */\n      swap1\n      pop\n        /* \"#utility.yul\":5631:5721   */\n      swap2\n      swap1\n      pop\n      jump\t// out\n        /* \"#utility.yul\":5727:5836   */\n    tag_114:\n        /* \"#utility.yul\":5808:5829   */\n      tag_197\n        /* \"#utility.yul\":5823:5828   */\n      dup2\n        /* \"#utility.yul\":5808:5829   */\n      tag_113\n      jump\t// in\n    tag_197:\n        /* \"#utility.yul\":5803:5806   */\n      dup3\n        /* \"#utility.yul\":5796:5830   */\n      mstore\n        /* \"#utility.yul\":5727:5836   */\n      pop\n      pop\n      jump\t// out\n        /* \"#utility.yul\":5842:6052   */\n    tag_36:\n        /* \"#utility.yul\":5929:5933   */\n      0x00\n        /* \"#utility.yul\":5967:5969   */\n      0x20\n        /* \"#utility.yul\":5956:5965   */\n      dup3\n        /* \"#utility.yul\":5952:5970   */\n      add\n        /* \"#utility.yul\":5944:5970   */\n      swap1\n      pop\n        /* \"#utility.yul\":5980:6045   */\n      tag_199\n        /* \"#utility.yul\":6042:6043   */\n      0x00\n        /* \"#utility.yul\":6031:6040   */\n      dup4\n        /* \"#utility.yul\":6027:6044   */\n      add\n        /* \"#utility.yul\":6018:6024   */\n      dup5\n        /* \"#utility.yul\":5980:6045   */\n      tag_114\n      jump\t// in\n    tag_199:\n        /* \"#utility.yul\":5842:6052   */\n      swap3\n      swap2\n      pop\n      pop\n      jump\t// out\n        /* \"#utility.yul\":6058:6280   */\n    tag_40:\n        /* \"#utility.yul\":6151:6155   */\n      0x00\n        /* \"#utility.yul\":6189:6191   */\n      0x20\n        /* \"#utility.yul\":6178:6187   */\n      dup3\n        /* \"#utility.yul\":6174:6192   */\n      add\n        /* \"#utility.yul\":6166:6192   */\n      swap1\n      pop\n        /* \"#utility.yul\":6202:6273   */\n      tag_201\n        /* \"#utility.yul\":6270:6271   */\n      0x00\n        /* \"#utility.yul\":6259:6268   */\n      dup4\n        /* \"#utility.yul\":6255:6272   */\n      add\n        /* \"#utility.yul\":6246:6252   */\n      dup5\n        /* \"#utility.yul\":6202:6273   */\n      tag_111\n      jump\t// in\n    tag_201:\n        /* \"#utility.yul\":6058:6280   */\n      swap3\n      swap2\n      pop\n      pop\n      jump\t// out\n        /* \"#utility.yul\":6286:6621   */\n    tag_115:\n        /* \"#utility.yul\":6387:6391   */\n      0x00\n        /* \"#utility.yul\":6477:6495   */\n      0xffffffffffffffff\n        /* \"#utility.yul\":6469:6475   */\n      dup3\n        /* \"#utility.yul\":6466:6496   */\n      gt\n        /* \"#utility.yul\":6463:6519   */\n      iszero\n      tag_203\n      jumpi\n        /* \"#utility.yul\":6499:6517   */\n      tag_204\n      tag_97\n      jump\t// in\n    tag_204:\n        /* \"#utility.yul\":6463:6519   */\n    tag_203:\n        /* \"#utility.yul\":6549:6553   */\n      0x20\n        /* \"#utility.yul\":6541:6547   */\n      dup3\n        /* \"#utility.yul\":6537:6554   */\n      mul\n        /* \"#utility.yul\":6529:6554   */\n      swap1\n      pop\n        /* \"#utility.yul\":6609:6613   */\n      0x20\n        /* \"#utility.yul\":6603:6607   */\n      dup2\n        /* \"#utility.yul\":6599:6614   */\n      add\n        /* \"#utility.yul\":6591:6614   */\n      swap1\n      pop\n        /* \"#utility.yul\":6286:6621   */\n      swap2\n      swap1\n      pop\n      jump\t// out\n        /* \"#utility.yul\":6627:6744   */\n    tag_116:\n        /* \"#utility.yul\":6736:6737   */\n      0x00\n        /* \"#utility.yul\":6733:6734   */\n      dup1\n        /* \"#utility.yul\":6726:6738   */\n      revert\n        /* \"#utility.yul\":6906:7476   */\n    tag_118:\n        /* \"#utility.yul\":6979:6984   */\n      0x00\n        /* \"#utility.yul\":7023:7027   */\n      0x40\n        /* \"#utility.yul\":7011:7020   */\n      dup3\n        /* \"#utility.yul\":7006:7009   */\n      dup5\n        /* \"#utility.yul\":7002:7021   */\n      sub\n        /* \"#utility.yul\":6998:7028   */\n      slt\n        /* \"#utility.yul\":6995:7112   */\n      iszero\n      tag_208\n      jumpi\n        /* \"#utility.yul\":7031:7110   */\n      tag_209\n      tag_116\n      jump\t// in\n    tag_209:\n        /* \"#utility.yul\":6995:7112   */\n    tag_208:\n        /* \"#utility.yul\":7130:7151   */\n      tag_210\n        /* \"#utility.yul\":7146:7150   */\n      0x40\n        /* \"#utility.yul\":7130:7151   */\n      tag_99\n      jump\t// in\n    tag_210:\n        /* \"#utility.yul\":7121:7151   */\n      swap1\n      pop\n        /* \"#utility.yul\":7209:7210   */\n      0x00\n        /* \"#utility.yul\":7249:7298   */\n      tag_211\n        /* \"#utility.yul\":7294:7297   */\n      dup5\n        /* \"#utility.yul\":7285:7291   */\n      dup3\n        /* \"#utility.yul\":7274:7283   */\n      dup6\n        /* \"#utility.yul\":7270:7292   */\n      add\n        /* \"#utility.yul\":7249:7298   */\n      tag_105\n      jump\t// in\n    tag_211:\n        /* \"#utility.yul\":7242:7246   */\n      0x00\n        /* \"#utility.yul\":7235:7240   */\n      dup4\n        /* \"#utility.yul\":7231:7247   */\n      add\n        /* \"#utility.yul\":7224:7299   */\n      mstore\n        /* \"#utility.yul\":7161:7310   */\n      pop\n        /* \"#utility.yul\":7367:7369   */\n      0x20\n        /* \"#utility.yul\":7408:7457   */\n      tag_212\n        /* \"#utility.yul\":7453:7456   */\n      dup5\n        /* \"#utility.yul\":7444:7450   */\n      dup3\n        /* \"#utility.yul\":7433:7442   */\n      dup6\n        /* \"#utility.yul\":7429:7451   */\n      add\n        /* \"#utility.yul\":7408:7457   */\n      tag_110\n      jump\t// in\n    tag_212:\n        /* \"#utility.yul\":7401:7405   */\n      0x20\n        /* \"#utility.yul\":7394:7399   */\n      dup4\n        /* \"#utility.yul\":7390:7406   */\n      add\n        /* \"#utility.yul\":7383:7458   */\n      mstore\n        /* \"#utility.yul\":7320:7469   */\n      pop\n        /* \"#utility.yul\":6906:7476   */\n      swap3\n      swap2\n      pop\n      pop\n      jump\t// out\n        /* \"#utility.yul\":7517:8299   */\n    tag_119:\n        /* \"#utility.yul\":7637:7642   */\n      0x00\n        /* \"#utility.yul\":7662:7767   */\n      tag_214\n        /* \"#utility.yul\":7678:7766   */\n      tag_215\n        /* \"#utility.yul\":7759:7765   */\n      dup5\n        /* \"#utility.yul\":7678:7766   */\n      tag_115\n      jump\t// in\n    tag_215:\n        /* \"#utility.yul\":7662:7767   */\n      tag_99\n      jump\t// in\n    tag_214:\n        /* \"#utility.yul\":7653:7767   */\n      swap1\n      pop\n        /* \"#utility.yul\":7787:7792   */\n      dup1\n        /* \"#utility.yul\":7816:7822   */\n      dup4\n        /* \"#utility.yul\":7809:7814   */\n      dup3\n        /* \"#utility.yul\":7802:7823   */\n      mstore\n        /* \"#utility.yul\":7850:7854   */\n      0x20\n        /* \"#utility.yul\":7843:7848   */\n      dup3\n        /* \"#utility.yul\":7839:7855   */\n      add\n        /* \"#utility.yul\":7832:7855   */\n      swap1\n      pop\n        /* \"#utility.yul\":7903:7907   */\n      0x40\n        /* \"#utility.yul\":7895:7901   */\n      dup5\n        /* \"#utility.yul\":7891:7908   */\n      mul\n        /* \"#utility.yul\":7883:7889   */\n      dup4\n        /* \"#utility.yul\":7879:7909   */\n      add\n        /* \"#utility.yul\":7932:7935   */\n      dup6\n        /* \"#utility.yul\":7924:7930   */\n      dup2\n        /* \"#utility.yul\":7921:7936   */\n      gt\n        /* \"#utility.yul\":7918:8040   */\n      iszero\n      tag_216\n      jumpi\n        /* \"#utility.yul\":7951:8030   */\n      tag_217\n      tag_101\n      jump\t// in\n    tag_217:\n        /* \"#utility.yul\":7918:8040   */\n    tag_216:\n        /* \"#utility.yul\":8066:8072   */\n      dup4\n        /* \"#utility.yul\":8049:8293   */\n    tag_218:\n        /* \"#utility.yul\":8083:8089   */\n      dup2\n        /* \"#utility.yul\":8078:8081   */\n      dup2\n        /* \"#utility.yul\":8075:8090   */\n      lt\n        /* \"#utility.yul\":8049:8293   */\n      iszero\n      tag_220\n      jumpi\n        /* \"#utility.yul\":8158:8161   */\n      dup1\n        /* \"#utility.yul\":8187:8248   */\n      tag_221\n        /* \"#utility.yul\":8244:8247   */\n      dup9\n        /* \"#utility.yul\":8232:8242   */\n      dup3\n        /* \"#utility.yul\":8187:8248   */\n      tag_118\n      jump\t// in\n    tag_221:\n        /* \"#utility.yul\":8182:8185   */\n      dup5\n        /* \"#utility.yul\":8175:8249   */\n      mstore\n        /* \"#utility.yul\":8278:8282   */\n      0x20\n        /* \"#utility.yul\":8273:8276   */\n      dup5\n        /* \"#utility.yul\":8269:8283   */\n      add\n        /* \"#utility.yul\":8262:8283   */\n      swap4\n      pop\n        /* \"#utility.yul\":8125:8293   */\n      pop\n        /* \"#utility.yul\":8109:8113   */\n      0x40\n        /* \"#utility.yul\":8104:8107   */\n      dup2\n        /* \"#utility.yul\":8100:8114   */\n      add\n        /* \"#utility.yul\":8093:8114   */\n      swap1\n      pop\n        /* \"#utility.yul\":8049:8293   */\n      jump(tag_218)\n    tag_220:\n        /* \"#utility.yul\":8053:8074   */\n      pop\n        /* \"#utility.yul\":7643:8299   */\n      pop\n      pop\n        /* \"#utility.yul\":7517:8299   */\n      swap4\n      swap3\n      pop\n      pop\n      pop\n      jump\t// out\n        /* \"#utility.yul\":8340:8758   */\n    tag_120:\n        /* \"#utility.yul\":8435:8440   */\n      0x00\n        /* \"#utility.yul\":8484:8487   */\n      dup3\n        /* \"#utility.yul\":8477:8481   */\n      0x1f\n        /* \"#utility.yul\":8469:8475   */\n      dup4\n        /* \"#utility.yul\":8465:8482   */\n      add\n        /* \"#utility.yul\":8461:8488   */\n      slt\n        /* \"#utility.yul\":8451:8573   */\n      tag_223\n      jumpi\n        /* \"#utility.yul\":8492:8571   */\n      tag_224\n      tag_95\n      jump\t// in\n    tag_224:\n        /* \"#utility.yul\":8451:8573   */\n    tag_223:\n        /* \"#utility.yul\":8609:8615   */\n      dup2\n        /* \"#utility.yul\":8596:8616   */\n      calldataload\n        /* \"#utility.yul\":8634:8752   */\n      tag_225\n        /* \"#utility.yul\":8748:8751   */\n      dup5\n        /* \"#utility.yul\":8740:8746   */\n      dup3\n        /* \"#utility.yul\":8733:8737   */\n      0x20\n        /* \"#utility.yul\":8725:8731   */\n      dup7\n        /* \"#utility.yul\":8721:8738   */\n      add\n        /* \"#utility.yul\":8634:8752   */\n      tag_119\n      jump\t// in\n    tag_225:\n        /* \"#utility.yul\":8625:8752   */\n      swap2\n      pop\n        /* \"#utility.yul\":8441:8758   */\n      pop\n        /* \"#utility.yul\":8340:8758   */\n      swap3\n      swap2\n      pop\n      pop\n      jump\t// out\n        /* \"#utility.yul\":8764:9351   */\n    tag_43:\n        /* \"#utility.yul\":8872:8878   */\n      0x00\n        /* \"#utility.yul\":8921:8923   */\n      0x20\n        /* \"#utility.yul\":8909:8918   */\n      dup3\n        /* \"#utility.yul\":8900:8907   */\n      dup5\n        /* \"#utility.yul\":8896:8919   */\n      sub\n        /* \"#utility.yul\":8892:8924   */\n      slt\n        /* \"#utility.yul\":8889:9008   */\n      iszero\n      tag_227\n      jumpi\n        /* \"#utility.yul\":8927:9006   */\n      tag_228\n      tag_93\n      jump\t// in\n    tag_228:\n        /* \"#utility.yul\":8889:9008   */\n    tag_227:\n        /* \"#utility.yul\":9075:9076   */\n      0x00\n        /* \"#utility.yul\":9064:9073   */\n      dup3\n        /* \"#utility.yul\":9060:9077   */\n      add\n        /* \"#utility.yul\":9047:9078   */\n      calldataload\n        /* \"#utility.yul\":9105:9123   */\n      0xffffffffffffffff\n        /* \"#utility.yul\":9097:9103   */\n      dup2\n        /* \"#utility.yul\":9094:9124   */\n      gt\n        /* \"#utility.yul\":9091:9208   */\n      iszero\n      tag_229\n      jumpi\n        /* \"#utility.yul\":9127:9206   */\n      tag_230\n      tag_94\n      jump\t// in\n    tag_230:\n        /* \"#utility.yul\":9091:9208   */\n    tag_229:\n        /* \"#utility.yul\":9232:9334   */\n      tag_231\n        /* \"#utility.yul\":9326:9333   */\n      dup5\n        /* \"#utility.yul\":9317:9323   */\n      dup3\n        /* \"#utility.yul\":9306:9315   */\n      dup6\n        /* \"#utility.yul\":9302:9324   */\n      add\n        /* \"#utility.yul\":9232:9334   */\n      tag_120\n      jump\t// in\n    tag_231:\n        /* \"#utility.yul\":9222:9334   */\n      swap2\n      pop\n        /* \"#utility.yul\":9018:9344   */\n      pop\n        /* \"#utility.yul\":8764:9351   */\n      swap3\n      swap2\n      pop\n      pop\n      jump\t// out\n        /* \"#utility.yul\":9357:9526   */\n    tag_121:\n        /* \"#utility.yul\":9441:9452   */\n      0x00\n        /* \"#utility.yul\":9475:9481   */\n      dup3\n        /* \"#utility.yul\":9470:9473   */\n      dup3\n        /* \"#utility.yul\":9463:9482   */\n      mstore\n        /* \"#utility.yul\":9515:9519   */\n      0x20\n        /* \"#utility.yul\":9510:9513   */\n      dup3\n        /* \"#utility.yul\":9506:9520   */\n      add\n        /* \"#utility.yul\":9491:9520   */\n      swap1\n      pop\n        /* \"#utility.yul\":9357:9526   */\n      swap3\n      swap2\n      pop\n      pop\n      jump\t// out\n        /* \"#utility.yul\":9532:9692   */\n    tag_122:\n        /* \"#utility.yul\":9672:9684   */\n      0x6f6e6c792061646d696e00000000000000000000000000000000000000000000\n        /* \"#utility.yul\":9668:9669   */\n      0x00\n        /* \"#utility.yul\":9660:9666   */\n      dup3\n        /* \"#utility.yul\":9656:9670   */\n      add\n        /* \"#utility.yul\":9649:9685   */\n      mstore\n        /* \"#utility.yul\":9532:9692   */\n      pop\n      jump\t// out\n        /* \"#utility.yul\":9698:10064   */\n    tag_123:\n        /* \"#utility.yul\":9840:9843   */\n      0x00\n        /* \"#utility.yul\":9861:9928   */\n      tag_235\n        /* \"#utility.yul\":9925:9927   */\n      0x0a\n        /* \"#utility.yul\":9920:9923   */\n      dup4\n        /* \"#utility.yul\":9861:9928   */\n      tag_121\n      jump\t// in\n    tag_235:\n        /* \"#utility.yul\":9854:9928   */\n      swap2\n      pop\n        /* \"#utility.yul\":9937:10030   */\n      tag_236\n        /* \"#utility.yul\":10026:10029   */\n      dup3\n        /* \"#utility.yul\":9937:10030   */\n      tag_122\n      jump\t// in\n    tag_236:\n        /* \"#utility.yul\":10055:10057   */\n      0x20\n        /* \"#utility.yul\":10050:10053   */\n      dup3\n        /* \"#utility.yul\":10046:10058   */\n      add\n        /* \"#utility.yul\":10039:10058   */\n      swap1\n      pop\n        /* \"#utility.yul\":9698:10064   */\n      swap2\n      swap1\n      pop\n      jump\t// out\n        /* \"#utility.yul\":10070:10489   */\n    tag_48:\n        /* \"#utility.yul\":10236:10240   */\n      0x00\n        /* \"#utility.yul\":10274:10276   */\n      0x20\n        /* \"#utility.yul\":10263:10272   */\n      dup3\n        /* \"#utility.yul\":10259:10277   */\n      add\n        /* \"#utility.yul\":10251:10277   */\n      swap1\n      pop\n        /* \"#utility.yul\":10323:10332   */\n      dup2\n        /* \"#utility.yul\":10317:10321   */\n      dup2\n        /* \"#utility.yul\":10313:10333   */\n      sub\n        /* \"#utility.yul\":10309:10310   */\n      0x00\n        /* \"#utility.yul\":10298:10307   */\n      dup4\n        /* \"#utility.yul\":10294:10311   */\n      add\n        /* \"#utility.yul\":10287:10334   */\n      mstore\n        /* \"#utility.yul\":10351:10482   */\n      tag_238\n        /* \"#utility.yul\":10477:10481   */\n      dup2\n        /* \"#utility.yul\":10351:10482   */\n      tag_123\n      jump\t// in\n    tag_238:\n        /* \"#utility.yul\":10343:10482   */\n      swap1\n      pop\n        /* \"#utility.yul\":10070:10489   */\n      swap2\n      swap1\n      pop\n      jump\t// out\n        /* \"#utility.yul\":10495:10675   */\n    tag_54:\n        /* \"#utility.yul\":10543:10620   */\n      0x4e487b7100000000000000000000000000000000000000000000000000000000\n        /* \"#utility.yul\":10540:10541   */\n      0x00\n        /* \"#utility.yul\":10533:10621   */\n      mstore\n        /* \"#utility.yul\":10640:10644   */\n      0x32\n        /* \"#utility.yul\":10637:10638   */\n      0x04\n        /* \"#utility.yul\":10630:10645   */\n      mstore\n        /* \"#utility.yul\":10664:10668   */\n      0x24\n        /* \"#utility.yul\":10661:10662   */\n      0x00\n        /* \"#utility.yul\":10654:10669   */\n      revert\n        /* \"#utility.yul\":10681:10861   */\n    tag_124:\n        /* \"#utility.yul\":10729:10806   */\n      0x4e487b7100000000000000000000000000000000000000000000000000000000\n        /* \"#utility.yul\":10726:10727   */\n      0x00\n        /* \"#utility.yul\":10719:10807   */\n      mstore\n        /* \"#utility.yul\":10826:10830   */\n      0x11\n        /* \"#utility.yul\":10823:10824   */\n      0x04\n        /* \"#utility.yul\":10816:10831   */\n      mstore\n        /* \"#utility.yul\":10850:10854   */\n      0x24\n        /* \"#utility.yul\":10847:10848   */\n      0x00\n        /* \"#utility.yul\":10840:10855   */\n      revert\n        /* \"#utility.yul\":10867:11100   */\n    tag_56:\n        /* \"#utility.yul\":10906:10909   */\n      0x00\n        /* \"#utility.yul\":10929:10953   */\n      tag_242\n        /* \"#utility.yul\":10947:10952   */\n      dup3\n        /* \"#utility.yul\":10929:10953   */\n      tag_108\n      jump\t// in\n    tag_242:\n        /* \"#utility.yul\":10920:10953   */\n      swap2\n      pop\n        /* \"#utility.yul\":10975:11041   */\n      0xffffffffffffffffffffffffffffffffffffffffffffffffffffffffffffffff\n        /* \"#utility.yul\":10968:10973   */\n      dup3\n        /* \"#utility.yul\":10965:11042   */\n      sub\n        /* \"#utility.yul\":10962:11065   */\n      tag_243\n      jumpi\n        /* \"#utility.yul\":11045:11063   */\n      tag_244\n      tag_124\n      jump\t// in\n    tag_244:\n        /* \"#utility.yul\":10962:11065   */\n    tag_243:\n        /* \"#utility.yul\":11092:11093   */\n      0x01\n        /* \"#utility.yul\":11085:11090   */\n      dup3\n        /* \"#utility.yul\":11081:11094   */\n      add\n        /* \"#utility.yul\":11074:11094   */\n      swap1\n      pop\n        /* \"#utility.yul\":10867:11100   */\n      swap2\n      swap1\n      pop\n      jump\t// out\n        /* \"#utility.yul\":11106:11280   */\n    tag_125:\n        /* \"#utility.yul\":11246:11272   */\n      0x726563697069656e74206e6f7420726567697374657265640000000000000000\n        /* \"#utility.yul\":11242:11243   */\n      0x00\n        /* \"#utility.yul\":11234:11240   */\n      dup3\n        /* \"#utility.yul\":11230:11244   */\n      add\n        /* \"#utility.yul\":11223:11273   */\n      mstore\n        /* \"#utility.yul\":11106:11280   */\n      pop\n      jump\t// out\n        /* \"#utility.yul\":11286:11652   */\n    tag_126:\n        /* \"#utility.yul\":11428:11431   */\n      0x00\n        /* \"#utility.yul\":11449:11516   */\n      tag_247\n        /* \"#utility.yul\":11513:11515   */\n      0x18\n        /* \"#utility.yul\":11508:11511   */\n      dup4\n        /* \"#utility.yul\":11449:11516   */\n      tag_121\n      jump\t// in\n    tag_247:\n        /* \"#utility.yul\":11442:11516   */\n      swap2\n      pop\n        /* \"#utility.yul\":11525:11618   */\n      tag_248\n        /* \"#utility.yul\":11614:11617   */\n      dup3\n        /* \"#utility.yul\":11525:11618   */\n      tag_125\n      jump\t// in\n    tag_248:\n        /* \"#utility.yul\":11643:11645   */\n      0x20\n        /* \"#utility.yul\":11638:11641   */\n      dup3\n        /* \"#utility.yul\":11634:11646   */\n      add\n        /* \"#utility.yul\":11627:11646   */\n      swap1\n      pop\n        /* \"#utility.yul\":11286:11652   */\n      swap2\n      swap1\n      pop\n      jump\t// out\n        /* \"#utility.yul\":11658:12077   */\n    tag_60:\n        /* \"#utility.yul\":11824:11828   */\n      0x00\n        /* \"#utility.yul\":11862:11864   */\n      0x20\n        /* \"#utility.yul\":11851:11860   */\n      dup3\n        /* \"#utility.yul\":11847:11865   */\n      add\n        /* \"#utility.yul\":11839:11865   */\n      swap1\n      pop\n        /* \"#utility.yul\":11911:11920   */\n      dup2\n        /* \"#utility.yul\":11905:11909   */\n      dup2\n        /* \"#utility.yul\":11901:11921   */\n      sub\n        /* \"#utility.yul\":11897:11898   */\n      0x00\n        /* \"#utility.yul\":11886:11895   */\n      dup4\n        /* \"#utility.yul\":11882:11899   */\n      add\n        /* \"#utility.yul\":11875:11922   */\n      mstore\n        /* \"#utility.yul\":11939:12070   */\n      tag_250\n        /* \"#utility.yul\":12065:12069   */\n      dup2\n        /* \"#utility.yul\":11939:12070   */\n      tag_126\n      jump\t// in\n    tag_250:\n        /* \"#utility.yul\":11931:12070   */\n      swap1\n      pop\n        /* \"#utility.yul\":11658:12077   */\n      swap2\n      swap1\n      pop\n      jump\t// out\n        /* \"#utility.yul\":12083:12525   */\n    tag_62:\n        /* \"#utility.yul\":12232:12236   */\n      0x00\n        /* \"#utility.yul\":12270:12272   */\n      0x60\n        /* \"#utility.yul\":12259:12268   */\n      dup3\n        /* \"#utility.yul\":12255:12273   */\n      add\n        /* \"#utility.yul\":12247:12273   */\n      swap1\n      pop\n        /* \"#utility.yul\":12283:12354   */\n      tag_252\n        /* \"#utility.yul\":12351:12352   */\n      0x00\n        /* \"#utility.yul\":12340:12349   */\n      dup4\n        /* \"#utility.yul\":12336:12353   */\n      add\n        /* \"#utility.yul\":12327:12333   */\n      dup7\n        /* \"#utility.yul\":12283:12354   */\n      tag_111\n      jump\t// in\n    tag_252:\n        /* \"#utility.yul\":12364:12436   */\n      tag_253\n        /* \"#utility.yul\":12432:12434   */\n      0x20\n        /* \"#utility.yul\":12421:12430   */\n      dup4\n        /* \"#utility.yul\":12417:12435   */\n      add\n        /* \"#utility.yul\":12408:12414   */\n      dup6\n        /* \"#utility.yul\":12364:12436   */\n      tag_111\n      jump\t// in\n    tag_253:\n        /* \"#utility.yul\":12446:12518   */\n      tag_254\n        /* \"#utility.yul\":12514:12516   */\n      0x40\n        /* \"#utility.yul\":12503:12512   */\n      dup4\n        /* \"#utility.yul\":12499:12517   */\n      add\n        /* \"#utility.yul\":12490:12496   */\n      dup5\n        /* \"#utility.yul\":12446:12518   */\n      tag_112\n      jump\t// in\n    tag_254:\n        /* \"#utility.yul\":12083:12525   */\n      swap5\n      swap4\n      pop\n      pop\n      pop\n      pop\n      jump\t// out\n\n    auxdata: 0xa2646970667358221220fdbf5227e2c368448bc35e4dcfe4f624b5a5dbc58f58ac967fd2073736340b8664736f6c63430008110033\n}\n",
				"bytecode": {
					"linkReferences": {},
					"object": "608060405234801561001057600080fd5b5033600160006101000a81548173ffffffffffffffffffffffffffffffffffffffff021916908373ffffffffffffffffffffffffffffffffffffffff160217905550610e2f806100616000396000f3fe608060405234801561001057600080fd5b50600436106100885760003560e01c8063aff38dc81161005b578063aff38dc814610100578063eb8203121461011e578063f851a4401461014e578063f8c8285b1461016c57610088565b806329af54cc1461008d5780634e71d92d146100a957806360db5082146100b3578063639ab82f146100e4575b600080fd5b6100a760048036038101906100a29190610946565b610188565b005b6100b16102ad565b005b6100cd60048036038101906100c891906109c5565b610461565b6040516100db929190610a10565b60405180910390f35b6100fe60048036038101906100f99190610946565b6104a5565b005b6101086105ca565b6040516101159190610a39565b60405180910390f35b61013860048036038101906101339190610a54565b6105d0565b6040516101459190610a9c565b60405180910390f35b6101566105f0565b6040516101639190610ab7565b60405180910390f35b61018660048036038101906101819190610bea565b610616565b005b600160009054906101000a900473ffffffffffffffffffffffffffffffffffffffff1673ffffffffffffffffffffffffffffffffffffffff163373ffffffffffffffffffffffffffffffffffffffff1614610218576040517f08c379a000000000000000000000000000000000000000000000000000000000815260040161020f90610c90565b60405180910390fd5b60005b81518110156102a95760016003600084848151811061023d5761023c610cb0565b5b602002602001015173ffffffffffffffffffffffffffffffffffffffff1673ffffffffffffffffffffffffffffffffffffffff16815260200190815260200160002060006101000a81548160ff02191690831515021790555080806102a190610d0e565b91505061021b565b5050565b60011515600360003373ffffffffffffffffffffffffffffffffffffffff1673ffffffffffffffffffffffffffffffffffffffff16815260200190815260200160002060009054906101000a900460ff16151514610340576040517f08c379a000000000000000000000000000000000000000000000000000000000815260040161033790610da2565b60405180910390fd5b6000600360003373ffffffffffffffffffffffffffffffffffffffff1673ffffffffffffffffffffffffffffffffffffffff16815260200190815260200160002060006101000a81548160ff0219169083151502179055506000600260008054815260200190815260200160002090508060000160009054906101000a900473ffffffffffffffffffffffffffffffffffffffff1673ffffffffffffffffffffffffffffffffffffffff166323b872dd303384600101546040518463ffffffff1660e01b815260040161041593929190610dc2565b600060405180830381600087803b15801561042f57600080fd5b505af1158015610443573d6000803e3d6000fd5b5050505060008081548092919061045990610d0e565b919050555050565b60026020528060005260406000206000915090508060000160009054906101000a900473ffffffffffffffffffffffffffffffffffffffff16908060010154905082565b600160009054906101000a900473ffffffffffffffffffffffffffffffffffffffff1673ffffffffffffffffffffffffffffffffffffffff163373ffffffffffffffffffffffffffffffffffffffff1614610535576040517f08c379a000000000000000000000000000000000000000000000000000000000815260040161052c90610c90565b60405180910390fd5b60005b81518110156105c65760006003600084848151811061055a57610559610cb0565b5b602002602001015173ffffffffffffffffffffffffffffffffffffffff1673ffffffffffffffffffffffffffffffffffffffff16815260200190815260200160002060006101000a81548160ff02191690831515021790555080806105be90610d0e565b915050610538565b5050565b60005481565b60036020528060005260406000206000915054906101000a900460ff1681565b600160009054906101000a900473ffffffffffffffffffffffffffffffffffffffff1681565b60008054905060005b82518110156107765782818151811061063b5761063a610cb0565b5b60200260200101516002600084815260200190815260200160002060008201518160000160006101000a81548173ffffffffffffffffffffffffffffffffffffffff021916908373ffffffffffffffffffffffffffffffffffffffff160217905550602082015181600101559050508281815181106106bd576106bc610cb0565b5b60200260200101516000015173ffffffffffffffffffffffffffffffffffffffff166323b872dd33308685815181106106f9576106f8610cb0565b5b6020026020010151602001516040518463ffffffff1660e01b815260040161072393929190610dc2565b600060405180830381600087803b15801561073d57600080fd5b505af1158015610751573d6000803e3d6000fd5b50505050818061076090610d0e565b925050808061076e90610d0e565b91505061061f565b505050565b6000604051905090565b600080fd5b600080fd5b600080fd5b6000601f19601f8301169050919050565b7f4e487b7100000000000000000000000000000000000000000000000000000000600052604160045260246000fd5b6107dd82610794565b810181811067ffffffffffffffff821117156107fc576107fb6107a5565b5b80604052505050565b600061080f61077b565b905061081b82826107d4565b919050565b600067ffffffffffffffff82111561083b5761083a6107a5565b5b602082029050602081019050919050565b600080fd5b600073ffffffffffffffffffffffffffffffffffffffff82169050919050565b600061087c82610851565b9050919050565b61088c81610871565b811461089757600080fd5b50565b6000813590506108a981610883565b92915050565b60006108c26108bd84610820565b610805565b905080838252602082019050602084028301858111156108e5576108e461084c565b5b835b8181101561090e57806108fa888261089a565b8452602084019350506020810190506108e7565b5050509392505050565b600082601f83011261092d5761092c61078f565b5b813561093d8482602086016108af565b91505092915050565b60006020828403121561095c5761095b610785565b5b600082013567ffffffffffffffff81111561097a5761097961078a565b5b61098684828501610918565b91505092915050565b6000819050919050565b6109a28161098f565b81146109ad57600080fd5b50565b6000813590506109bf81610999565b92915050565b6000602082840312156109db576109da610785565b5b60006109e9848285016109b0565b91505092915050565b6109fb81610871565b82525050565b610a0a8161098f565b82525050565b6000604082019050610a2560008301856109f2565b610a326020830184610a01565b9392505050565b6000602082019050610a4e6000830184610a01565b92915050565b600060208284031215610a6a57610a69610785565b5b6000610a788482850161089a565b91505092915050565b60008115159050919050565b610a9681610a81565b82525050565b6000602082019050610ab16000830184610a8d565b92915050565b6000602082019050610acc60008301846109f2565b92915050565b600067ffffffffffffffff821115610aed57610aec6107a5565b5b602082029050602081019050919050565b600080fd5b600060408284031215610b1957610b18610afe565b5b610b236040610805565b90506000610b338482850161089a565b6000830152506020610b47848285016109b0565b60208301525092915050565b6000610b66610b6184610ad2565b610805565b90508083825260208201905060408402830185811115610b8957610b8861084c565b5b835b81811015610bb25780610b9e8882610b03565b845260208401935050604081019050610b8b565b5050509392505050565b600082601f830112610bd157610bd061078f565b5b8135610be1848260208601610b53565b91505092915050565b600060208284031215610c0057610bff610785565b5b600082013567ffffffffffffffff811115610c1e57610c1d61078a565b5b610c2a84828501610bbc565b91505092915050565b600082825260208201905092915050565b7f6f6e6c792061646d696e00000000000000000000000000000000000000000000600082015250565b6000610c7a600a83610c33565b9150610c8582610c44565b602082019050919050565b60006020820190508181036000830152610ca981610c6d565b9050919050565b7f4e487b7100000000000000000000000000000000000000000000000000000000600052603260045260246000fd5b7f4e487b7100000000000000000000000000000000000000000000000000000000600052601160045260246000fd5b6000610d198261098f565b91507fffffffffffffffffffffffffffffffffffffffffffffffffffffffffffffffff8203610d4b57610d4a610cdf565b5b600182019050919050565b7f726563697069656e74206e6f7420726567697374657265640000000000000000600082015250565b6000610d8c601883610c33565b9150610d9782610d56565b602082019050919050565b60006020820190508181036000830152610dbb81610d7f565b9050919050565b6000606082019050610dd760008301866109f2565b610de460208301856109f2565b610df16040830184610a01565b94935050505056fea2646970667358221220fdbf5227e2c368448bc35e4dcfe4f624b5a5dbc58f58ac967fd2073736340b8664736f6c63430008110033",
					"opcodes": "PUSH1 0x80 PUSH1 0x40 MSTORE CALLVALUE DUP1 ISZERO PUSH2 0x10 JUMPI PUSH1 0x0 DUP1 REVERT JUMPDEST POP CALLER PUSH1 0x1 PUSH1 0x0 PUSH2 0x100 EXP DUP2 SLOAD DUP2 PUSH20 0xFFFFFFFFFFFFFFFFFFFFFFFFFFFFFFFFFFFFFFFF MUL NOT AND SWAP1 DUP4 PUSH20 0xFFFFFFFFFFFFFFFFFFFFFFFFFFFFFFFFFFFFFFFF AND MUL OR SWAP1 SSTORE POP PUSH2 0xE2F DUP1 PUSH2 0x61 PUSH1 0x0 CODECOPY PUSH1 0x0 RETURN INVALID PUSH1 0x80 PUSH1 0x40 MSTORE CALLVALUE DUP1 ISZERO PUSH2 0x10 JUMPI PUSH1 0x0 DUP1 REVERT JUMPDEST POP PUSH1 0x4 CALLDATASIZE LT PUSH2 0x88 JUMPI PUSH1 0x0 CALLDATALOAD PUSH1 0xE0 SHR DUP1 PUSH4 0xAFF38DC8 GT PUSH2 0x5B JUMPI DUP1 PUSH4 0xAFF38DC8 EQ PUSH2 0x100 JUMPI DUP1 PUSH4 0xEB820312 EQ PUSH2 0x11E JUMPI DUP1 PUSH4 0xF851A440 EQ PUSH2 0x14E JUMPI DUP1 PUSH4 0xF8C8285B EQ PUSH2 0x16C JUMPI PUSH2 0x88 JUMP JUMPDEST DUP1 PUSH4 0x29AF54CC EQ PUSH2 0x8D JUMPI DUP1 PUSH4 0x4E71D92D EQ PUSH2 0xA9 JUMPI DUP1 PUSH4 0x60DB5082 EQ PUSH2 0xB3 JUMPI DUP1 PUSH4 0x639AB82F EQ PUSH2 0xE4 JUMPI JUMPDEST PUSH1 0x0 DUP1 REVERT JUMPDEST PUSH2 0xA7 PUSH1 0x4 DUP1 CALLDATASIZE SUB DUP2 ADD SWAP1 PUSH2 0xA2 SWAP2 SWAP1 PUSH2 0x946 JUMP JUMPDEST PUSH2 0x188 JUMP JUMPDEST STOP JUMPDEST PUSH2 0xB1 PUSH2 0x2AD JUMP JUMPDEST STOP JUMPDEST PUSH2 0xCD PUSH1 0x4 DUP1 CALLDATASIZE SUB DUP2 ADD SWAP1 PUSH2 0xC8 SWAP2 SWAP1 PUSH2 0x9C5 JUMP JUMPDEST PUSH2 0x461 JUMP JUMPDEST PUSH1 0x40 MLOAD PUSH2 0xDB SWAP3 SWAP2 SWAP1 PUSH2 0xA10 JUMP JUMPDEST PUSH1 0x40 MLOAD DUP1 SWAP2 SUB SWAP1 RETURN JUMPDEST PUSH2 0xFE PUSH1 0x4 DUP1 CALLDATASIZE SUB DUP2 ADD SWAP1 PUSH2 0xF9 SWAP2 SWAP1 PUSH2 0x946 JUMP JUMPDEST PUSH2 0x4A5 JUMP JUMPDEST STOP JUMPDEST PUSH2 0x108 PUSH2 0x5CA JUMP JUMPDEST PUSH1 0x40 MLOAD PUSH2 0x115 SWAP2 SWAP1 PUSH2 0xA39 JUMP JUMPDEST PUSH1 0x40 MLOAD DUP1 SWAP2 SUB SWAP1 RETURN JUMPDEST PUSH2 0x138 PUSH1 0x4 DUP1 CALLDATASIZE SUB DUP2 ADD SWAP1 PUSH2 0x133 SWAP2 SWAP1 PUSH2 0xA54 JUMP JUMPDEST PUSH2 0x5D0 JUMP JUMPDEST PUSH1 0x40 MLOAD PUSH2 0x145 SWAP2 SWAP1 PUSH2 0xA9C JUMP JUMPDEST PUSH1 0x40 MLOAD DUP1 SWAP2 SUB SWAP1 RETURN JUMPDEST PUSH2 0x156 PUSH2 0x5F0 JUMP JUMPDEST PUSH1 0x40 MLOAD PUSH2 0x163 SWAP2 SWAP1 PUSH2 0xAB7 JUMP JUMPDEST PUSH1 0x40 MLOAD DUP1 SWAP2 SUB SWAP1 RETURN JUMPDEST PUSH2 0x186 PUSH1 0x4 DUP1 CALLDATASIZE SUB DUP2 ADD SWAP1 PUSH2 0x181 SWAP2 SWAP1 PUSH2 0xBEA JUMP JUMPDEST PUSH2 0x616 JUMP JUMPDEST STOP JUMPDEST PUSH1 0x1 PUSH1 0x0 SWAP1 SLOAD SWAP1 PUSH2 0x100 EXP SWAP1 DIV PUSH20 0xFFFFFFFFFFFFFFFFFFFFFFFFFFFFFFFFFFFFFFFF AND PUSH20 0xFFFFFFFFFFFFFFFFFFFFFFFFFFFFFFFFFFFFFFFF AND CALLER PUSH20 0xFFFFFFFFFFFFFFFFFFFFFFFFFFFFFFFFFFFFFFFF AND EQ PUSH2 0x218 JUMPI PUSH1 0x40 MLOAD PUSH32 0x8C379A000000000000000000000000000000000000000000000000000000000 DUP2 MSTORE PUSH1 0x4 ADD PUSH2 0x20F SWAP1 PUSH2 0xC90 JUMP JUMPDEST PUSH1 0x40 MLOAD DUP1 SWAP2 SUB SWAP1 REVERT JUMPDEST PUSH1 0x0 JUMPDEST DUP2 MLOAD DUP2 LT ISZERO PUSH2 0x2A9 JUMPI PUSH1 0x1 PUSH1 0x3 PUSH1 0x0 DUP5 DUP5 DUP2 MLOAD DUP2 LT PUSH2 0x23D JUMPI PUSH2 0x23C PUSH2 0xCB0 JUMP JUMPDEST JUMPDEST PUSH1 0x20 MUL PUSH1 0x20 ADD ADD MLOAD PUSH20 0xFFFFFFFFFFFFFFFFFFFFFFFFFFFFFFFFFFFFFFFF AND PUSH20 0xFFFFFFFFFFFFFFFFFFFFFFFFFFFFFFFFFFFFFFFF AND DUP2 MSTORE PUSH1 0x20 ADD SWAP1 DUP2 MSTORE PUSH1 0x20 ADD PUSH1 0x0 KECCAK256 PUSH1 0x0 PUSH2 0x100 EXP DUP2 SLOAD DUP2 PUSH1 0xFF MUL NOT AND SWAP1 DUP4 ISZERO ISZERO MUL OR SWAP1 SSTORE POP DUP1 DUP1 PUSH2 0x2A1 SWAP1 PUSH2 0xD0E JUMP JUMPDEST SWAP2 POP POP PUSH2 0x21B JUMP JUMPDEST POP POP JUMP JUMPDEST PUSH1 0x1 ISZERO ISZERO PUSH1 0x3 PUSH1 0x0 CALLER PUSH20 0xFFFFFFFFFFFFFFFFFFFFFFFFFFFFFFFFFFFFFFFF AND PUSH20 0xFFFFFFFFFFFFFFFFFFFFFFFFFFFFFFFFFFFFFFFF AND DUP2 MSTORE PUSH1 0x20 ADD SWAP1 DUP2 MSTORE PUSH1 0x20 ADD PUSH1 0x0 KECCAK256 PUSH1 0x0 SWAP1 SLOAD SWAP1 PUSH2 0x100 EXP SWAP1 DIV PUSH1 0xFF AND ISZERO ISZERO EQ PUSH2 0x340 JUMPI PUSH1 0x40 MLOAD PUSH32 0x8C379A000000000000000000000000000000000000000000000000000000000 DUP2 MSTORE PUSH1 0x4 ADD PUSH2 0x337 SWAP1 PUSH2 0xDA2 JUMP JUMPDEST PUSH1 0x40 MLOAD DUP1 SWAP2 SUB SWAP1 REVERT JUMPDEST PUSH1 0x0 PUSH1 0x3 PUSH1 0x0 CALLER PUSH20 0xFFFFFFFFFFFFFFFFFFFFFFFFFFFFFFFFFFFFFFFF AND PUSH20 0xFFFFFFFFFFFFFFFFFFFFFFFFFFFFFFFFFFFFFFFF AND DUP2 MSTORE PUSH1 0x20 ADD SWAP1 DUP2 MSTORE PUSH1 0x20 ADD PUSH1 0x0 KECCAK256 PUSH1 0x0 PUSH2 0x100 EXP DUP2 SLOAD DUP2 PUSH1 0xFF MUL NOT AND SWAP1 DUP4 ISZERO ISZERO MUL OR SWAP1 SSTORE POP PUSH1 0x0 PUSH1 0x2 PUSH1 0x0 DUP1 SLOAD DUP2 MSTORE PUSH1 0x20 ADD SWAP1 DUP2 MSTORE PUSH1 0x20 ADD PUSH1 0x0 KECCAK256 SWAP1 POP DUP1 PUSH1 0x0 ADD PUSH1 0x0 SWAP1 SLOAD SWAP1 PUSH2 0x100 EXP SWAP1 DIV PUSH20 0xFFFFFFFFFFFFFFFFFFFFFFFFFFFFFFFFFFFFFFFF AND PUSH20 0xFFFFFFFFFFFFFFFFFFFFFFFFFFFFFFFFFFFFFFFF AND PUSH4 0x23B872DD ADDRESS CALLER DUP5 PUSH1 0x1 ADD SLOAD PUSH1 0x40 MLOAD DUP5 PUSH4 0xFFFFFFFF AND PUSH1 0xE0 SHL DUP2 MSTORE PUSH1 0x4 ADD PUSH2 0x415 SWAP4 SWAP3 SWAP2 SWAP1 PUSH2 0xDC2 JUMP JUMPDEST PUSH1 0x0 PUSH1 0x40 MLOAD DUP1 DUP4 SUB DUP2 PUSH1 0x0 DUP8 DUP1 EXTCODESIZE ISZERO DUP1 ISZERO PUSH2 0x42F JUMPI PUSH1 0x0 DUP1 REVERT JUMPDEST POP GAS CALL ISZERO DUP1 ISZERO PUSH2 0x443 JUMPI RETURNDATASIZE PUSH1 0x0 DUP1 RETURNDATACOPY RETURNDATASIZE PUSH1 0x0 REVERT JUMPDEST POP POP POP POP PUSH1 0x0 DUP1 DUP2 SLOAD DUP1 SWAP3 SWAP2 SWAP1 PUSH2 0x459 SWAP1 PUSH2 0xD0E JUMP JUMPDEST SWAP2 SWAP1 POP SSTORE POP POP JUMP JUMPDEST PUSH1 0x2 PUSH1 0x20 MSTORE DUP1 PUSH1 0x0 MSTORE PUSH1 0x40 PUSH1 0x0 KECCAK256 PUSH1 0x0 SWAP2 POP SWAP1 POP DUP1 PUSH1 0x0 ADD PUSH1 0x0 SWAP1 SLOAD SWAP1 PUSH2 0x100 EXP SWAP1 DIV PUSH20 0xFFFFFFFFFFFFFFFFFFFFFFFFFFFFFFFFFFFFFFFF AND SWAP1 DUP1 PUSH1 0x1 ADD SLOAD SWAP1 POP DUP3 JUMP JUMPDEST PUSH1 0x1 PUSH1 0x0 SWAP1 SLOAD SWAP1 PUSH2 0x100 EXP SWAP1 DIV PUSH20 0xFFFFFFFFFFFFFFFFFFFFFFFFFFFFFFFFFFFFFFFF AND PUSH20 0xFFFFFFFFFFFFFFFFFFFFFFFFFFFFFFFFFFFFFFFF AND CALLER PUSH20 0xFFFFFFFFFFFFFFFFFFFFFFFFFFFFFFFFFFFFFFFF AND EQ PUSH2 0x535 JUMPI PUSH1 0x40 MLOAD PUSH32 0x8C379A000000000000000000000000000000000000000000000000000000000 DUP2 MSTORE PUSH1 0x4 ADD PUSH2 0x52C SWAP1 PUSH2 0xC90 JUMP JUMPDEST PUSH1 0x40 MLOAD DUP1 SWAP2 SUB SWAP1 REVERT JUMPDEST PUSH1 0x0 JUMPDEST DUP2 MLOAD DUP2 LT ISZERO PUSH2 0x5C6 JUMPI PUSH1 0x0 PUSH1 0x3 PUSH1 0x0 DUP5 DUP5 DUP2 MLOAD DUP2 LT PUSH2 0x55A JUMPI PUSH2 0x559 PUSH2 0xCB0 JUMP JUMPDEST JUMPDEST PUSH1 0x20 MUL PUSH1 0x20 ADD ADD MLOAD PUSH20 0xFFFFFFFFFFFFFFFFFFFFFFFFFFFFFFFFFFFFFFFF AND PUSH20 0xFFFFFFFFFFFFFFFFFFFFFFFFFFFFFFFFFFFFFFFF AND DUP2 MSTORE PUSH1 0x20 ADD SWAP1 DUP2 MSTORE PUSH1 0x20 ADD PUSH1 0x0 KECCAK256 PUSH1 0x0 PUSH2 0x100 EXP DUP2 SLOAD DUP2 PUSH1 0xFF MUL NOT AND SWAP1 DUP4 ISZERO ISZERO MUL OR SWAP1 SSTORE POP DUP1 DUP1 PUSH2 0x5BE SWAP1 PUSH2 0xD0E JUMP JUMPDEST SWAP2 POP POP PUSH2 0x538 JUMP JUMPDEST POP POP JUMP JUMPDEST PUSH1 0x0 SLOAD DUP2 JUMP JUMPDEST PUSH1 0x3 PUSH1 0x20 MSTORE DUP1 PUSH1 0x0 MSTORE PUSH1 0x40 PUSH1 0x0 KECCAK256 PUSH1 0x0 SWAP2 POP SLOAD SWAP1 PUSH2 0x100 EXP SWAP1 DIV PUSH1 0xFF AND DUP2 JUMP JUMPDEST PUSH1 0x1 PUSH1 0x0 SWAP1 SLOAD SWAP1 PUSH2 0x100 EXP SWAP1 DIV PUSH20 0xFFFFFFFFFFFFFFFFFFFFFFFFFFFFFFFFFFFFFFFF AND DUP2 JUMP JUMPDEST PUSH1 0x0 DUP1 SLOAD SWAP1 POP PUSH1 0x0 JUMPDEST DUP3 MLOAD DUP2 LT ISZERO PUSH2 0x776 JUMPI DUP3 DUP2 DUP2 MLOAD DUP2 LT PUSH2 0x63B JUMPI PUSH2 0x63A PUSH2 0xCB0 JUMP JUMPDEST JUMPDEST PUSH1 0x20 MUL PUSH1 0x20 ADD ADD MLOAD PUSH1 0x2 PUSH1 0x0 DUP5 DUP2 MSTORE PUSH1 0x20 ADD SWAP1 DUP2 MSTORE PUSH1 0x20 ADD PUSH1 0x0 KECCAK256 PUSH1 0x0 DUP3 ADD MLOAD DUP2 PUSH1 0x0 ADD PUSH1 0x0 PUSH2 0x100 EXP DUP2 SLOAD DUP2 PUSH20 0xFFFFFFFFFFFFFFFFFFFFFFFFFFFFFFFFFFFFFFFF MUL NOT AND SWAP1 DUP4 PUSH20 0xFFFFFFFFFFFFFFFFFFFFFFFFFFFFFFFFFFFFFFFF AND MUL OR SWAP1 SSTORE POP PUSH1 0x20 DUP3 ADD MLOAD DUP2 PUSH1 0x1 ADD SSTORE SWAP1 POP POP DUP3 DUP2 DUP2 MLOAD DUP2 LT PUSH2 0x6BD JUMPI PUSH2 0x6BC PUSH2 0xCB0 JUMP JUMPDEST JUMPDEST PUSH1 0x20 MUL PUSH1 0x20 ADD ADD MLOAD PUSH1 0x0 ADD MLOAD PUSH20 0xFFFFFFFFFFFFFFFFFFFFFFFFFFFFFFFFFFFFFFFF AND PUSH4 0x23B872DD CALLER ADDRESS DUP7 DUP6 DUP2 MLOAD DUP2 LT PUSH2 0x6F9 JUMPI PUSH2 0x6F8 PUSH2 0xCB0 JUMP JUMPDEST JUMPDEST PUSH1 0x20 MUL PUSH1 0x20 ADD ADD MLOAD PUSH1 0x20 ADD MLOAD PUSH1 0x40 MLOAD DUP5 PUSH4 0xFFFFFFFF AND PUSH1 0xE0 SHL DUP2 MSTORE PUSH1 0x4 ADD PUSH2 0x723 SWAP4 SWAP3 SWAP2 SWAP1 PUSH2 0xDC2 JUMP JUMPDEST PUSH1 0x0 PUSH1 0x40 MLOAD DUP1 DUP4 SUB DUP2 PUSH1 0x0 DUP8 DUP1 EXTCODESIZE ISZERO DUP1 ISZERO PUSH2 0x73D JUMPI PUSH1 0x0 DUP1 REVERT JUMPDEST POP GAS CALL ISZERO DUP1 ISZERO PUSH2 0x751 JUMPI RETURNDATASIZE PUSH1 0x0 DUP1 RETURNDATACOPY RETURNDATASIZE PUSH1 0x0 REVERT JUMPDEST POP POP POP POP DUP2 DUP1 PUSH2 0x760 SWAP1 PUSH2 0xD0E JUMP JUMPDEST SWAP3 POP POP DUP1 DUP1 PUSH2 0x76E SWAP1 PUSH2 0xD0E JUMP JUMPDEST SWAP2 POP POP PUSH2 0x61F JUMP JUMPDEST POP POP POP JUMP JUMPDEST PUSH1 0x0 PUSH1 0x40 MLOAD SWAP1 POP SWAP1 JUMP JUMPDEST PUSH1 0x0 DUP1 REVERT JUMPDEST PUSH1 0x0 DUP1 REVERT JUMPDEST PUSH1 0x0 DUP1 REVERT JUMPDEST PUSH1 0x0 PUSH1 0x1F NOT PUSH1 0x1F DUP4 ADD AND SWAP1 POP SWAP2 SWAP1 POP JUMP JUMPDEST PUSH32 0x4E487B7100000000000000000000000000000000000000000000000000000000 PUSH1 0x0 MSTORE PUSH1 0x41 PUSH1 0x4 MSTORE PUSH1 0x24 PUSH1 0x0 REVERT JUMPDEST PUSH2 0x7DD DUP3 PUSH2 0x794 JUMP JUMPDEST DUP2 ADD DUP2 DUP2 LT PUSH8 0xFFFFFFFFFFFFFFFF DUP3 GT OR ISZERO PUSH2 0x7FC JUMPI PUSH2 0x7FB PUSH2 0x7A5 JUMP JUMPDEST JUMPDEST DUP1 PUSH1 0x40 MSTORE POP POP POP JUMP JUMPDEST PUSH1 0x0 PUSH2 0x80F PUSH2 0x77B JUMP JUMPDEST SWAP1 POP PUSH2 0x81B DUP3 DUP3 PUSH2 0x7D4 JUMP JUMPDEST SWAP2 SWAP1 POP JUMP JUMPDEST PUSH1 0x0 PUSH8 0xFFFFFFFFFFFFFFFF DUP3 GT ISZERO PUSH2 0x83B JUMPI PUSH2 0x83A PUSH2 0x7A5 JUMP JUMPDEST JUMPDEST PUSH1 0x20 DUP3 MUL SWAP1 POP PUSH1 0x20 DUP2 ADD SWAP1 POP SWAP2 SWAP1 POP JUMP JUMPDEST PUSH1 0x0 DUP1 REVERT JUMPDEST PUSH1 0x0 PUSH20 0xFFFFFFFFFFFFFFFFFFFFFFFFFFFFFFFFFFFFFFFF DUP3 AND SWAP1 POP SWAP2 SWAP1 POP JUMP JUMPDEST PUSH1 0x0 PUSH2 0x87C DUP3 PUSH2 0x851 JUMP JUMPDEST SWAP1 POP SWAP2 SWAP1 POP JUMP JUMPDEST PUSH2 0x88C DUP2 PUSH2 0x871 JUMP JUMPDEST DUP2 EQ PUSH2 0x897 JUMPI PUSH1 0x0 DUP1 REVERT JUMPDEST POP JUMP JUMPDEST PUSH1 0x0 DUP2 CALLDATALOAD SWAP1 POP PUSH2 0x8A9 DUP2 PUSH2 0x883 JUMP JUMPDEST SWAP3 SWAP2 POP POP JUMP JUMPDEST PUSH1 0x0 PUSH2 0x8C2 PUSH2 0x8BD DUP5 PUSH2 0x820 JUMP JUMPDEST PUSH2 0x805 JUMP JUMPDEST SWAP1 POP DUP1 DUP4 DUP3 MSTORE PUSH1 0x20 DUP3 ADD SWAP1 POP PUSH1 0x20 DUP5 MUL DUP4 ADD DUP6 DUP2 GT ISZERO PUSH2 0x8E5 JUMPI PUSH2 0x8E4 PUSH2 0x84C JUMP JUMPDEST JUMPDEST DUP4 JUMPDEST DUP2 DUP2 LT ISZERO PUSH2 0x90E JUMPI DUP1 PUSH2 0x8FA DUP9 DUP3 PUSH2 0x89A JUMP JUMPDEST DUP5 MSTORE PUSH1 0x20 DUP5 ADD SWAP4 POP POP PUSH1 0x20 DUP2 ADD SWAP1 POP PUSH2 0x8E7 JUMP JUMPDEST POP POP POP SWAP4 SWAP3 POP POP POP JUMP JUMPDEST PUSH1 0x0 DUP3 PUSH1 0x1F DUP4 ADD SLT PUSH2 0x92D JUMPI PUSH2 0x92C PUSH2 0x78F JUMP JUMPDEST JUMPDEST DUP2 CALLDATALOAD PUSH2 0x93D DUP5 DUP3 PUSH1 0x20 DUP7 ADD PUSH2 0x8AF JUMP JUMPDEST SWAP2 POP POP SWAP3 SWAP2 POP POP JUMP JUMPDEST PUSH1 0x0 PUSH1 0x20 DUP3 DUP5 SUB SLT ISZERO PUSH2 0x95C JUMPI PUSH2 0x95B PUSH2 0x785 JUMP JUMPDEST JUMPDEST PUSH1 0x0 DUP3 ADD CALLDATALOAD PUSH8 0xFFFFFFFFFFFFFFFF DUP2 GT ISZERO PUSH2 0x97A JUMPI PUSH2 0x979 PUSH2 0x78A JUMP JUMPDEST JUMPDEST PUSH2 0x986 DUP5 DUP3 DUP6 ADD PUSH2 0x918 JUMP JUMPDEST SWAP2 POP POP SWAP3 SWAP2 POP POP JUMP JUMPDEST PUSH1 0x0 DUP2 SWAP1 POP SWAP2 SWAP1 POP JUMP JUMPDEST PUSH2 0x9A2 DUP2 PUSH2 0x98F JUMP JUMPDEST DUP2 EQ PUSH2 0x9AD JUMPI PUSH1 0x0 DUP1 REVERT JUMPDEST POP JUMP JUMPDEST PUSH1 0x0 DUP2 CALLDATALOAD SWAP1 POP PUSH2 0x9BF DUP2 PUSH2 0x999 JUMP JUMPDEST SWAP3 SWAP2 POP POP JUMP JUMPDEST PUSH1 0x0 PUSH1 0x20 DUP3 DUP5 SUB SLT ISZERO PUSH2 0x9DB JUMPI PUSH2 0x9DA PUSH2 0x785 JUMP JUMPDEST JUMPDEST PUSH1 0x0 PUSH2 0x9E9 DUP5 DUP3 DUP6 ADD PUSH2 0x9B0 JUMP JUMPDEST SWAP2 POP POP SWAP3 SWAP2 POP POP JUMP JUMPDEST PUSH2 0x9FB DUP2 PUSH2 0x871 JUMP JUMPDEST DUP3 MSTORE POP POP JUMP JUMPDEST PUSH2 0xA0A DUP2 PUSH2 0x98F JUMP JUMPDEST DUP3 MSTORE POP POP JUMP JUMPDEST PUSH1 0x0 PUSH1 0x40 DUP3 ADD SWAP1 POP PUSH2 0xA25 PUSH1 0x0 DUP4 ADD DUP6 PUSH2 0x9F2 JUMP JUMPDEST PUSH2 0xA32 PUSH1 0x20 DUP4 ADD DUP5 PUSH2 0xA01 JUMP JUMPDEST SWAP4 SWAP3 POP POP POP JUMP JUMPDEST PUSH1 0x0 PUSH1 0x20 DUP3 ADD SWAP1 POP PUSH2 0xA4E PUSH1 0x0 DUP4 ADD DUP5 PUSH2 0xA01 JUMP JUMPDEST SWAP3 SWAP2 POP POP JUMP JUMPDEST PUSH1 0x0 PUSH1 0x20 DUP3 DUP5 SUB SLT ISZERO PUSH2 0xA6A JUMPI PUSH2 0xA69 PUSH2 0x785 JUMP JUMPDEST JUMPDEST PUSH1 0x0 PUSH2 0xA78 DUP5 DUP3 DUP6 ADD PUSH2 0x89A JUMP JUMPDEST SWAP2 POP POP SWAP3 SWAP2 POP POP JUMP JUMPDEST PUSH1 0x0 DUP2 ISZERO ISZERO SWAP1 POP SWAP2 SWAP1 POP JUMP JUMPDEST PUSH2 0xA96 DUP2 PUSH2 0xA81 JUMP JUMPDEST DUP3 MSTORE POP POP JUMP JUMPDEST PUSH1 0x0 PUSH1 0x20 DUP3 ADD SWAP1 POP PUSH2 0xAB1 PUSH1 0x0 DUP4 ADD DUP5 PUSH2 0xA8D JUMP JUMPDEST SWAP3 SWAP2 POP POP JUMP JUMPDEST PUSH1 0x0 PUSH1 0x20 DUP3 ADD SWAP1 POP PUSH2 0xACC PUSH1 0x0 DUP4 ADD DUP5 PUSH2 0x9F2 JUMP JUMPDEST SWAP3 SWAP2 POP POP JUMP JUMPDEST PUSH1 0x0 PUSH8 0xFFFFFFFFFFFFFFFF DUP3 GT ISZERO PUSH2 0xAED JUMPI PUSH2 0xAEC PUSH2 0x7A5 JUMP JUMPDEST JUMPDEST PUSH1 0x20 DUP3 MUL SWAP1 POP PUSH1 0x20 DUP2 ADD SWAP1 POP SWAP2 SWAP1 POP JUMP JUMPDEST PUSH1 0x0 DUP1 REVERT JUMPDEST PUSH1 0x0 PUSH1 0x40 DUP3 DUP5 SUB SLT ISZERO PUSH2 0xB19 JUMPI PUSH2 0xB18 PUSH2 0xAFE JUMP JUMPDEST JUMPDEST PUSH2 0xB23 PUSH1 0x40 PUSH2 0x805 JUMP JUMPDEST SWAP1 POP PUSH1 0x0 PUSH2 0xB33 DUP5 DUP3 DUP6 ADD PUSH2 0x89A JUMP JUMPDEST PUSH1 0x0 DUP4 ADD MSTORE POP PUSH1 0x20 PUSH2 0xB47 DUP5 DUP3 DUP6 ADD PUSH2 0x9B0 JUMP JUMPDEST PUSH1 0x20 DUP4 ADD MSTORE POP SWAP3 SWAP2 POP POP JUMP JUMPDEST PUSH1 0x0 PUSH2 0xB66 PUSH2 0xB61 DUP5 PUSH2 0xAD2 JUMP JUMPDEST PUSH2 0x805 JUMP JUMPDEST SWAP1 POP DUP1 DUP4 DUP3 MSTORE PUSH1 0x20 DUP3 ADD SWAP1 POP PUSH1 0x40 DUP5 MUL DUP4 ADD DUP6 DUP2 GT ISZERO PUSH2 0xB89 JUMPI PUSH2 0xB88 PUSH2 0x84C JUMP JUMPDEST JUMPDEST DUP4 JUMPDEST DUP2 DUP2 LT ISZERO PUSH2 0xBB2 JUMPI DUP1 PUSH2 0xB9E DUP9 DUP3 PUSH2 0xB03 JUMP JUMPDEST DUP5 MSTORE PUSH1 0x20 DUP5 ADD SWAP4 POP POP PUSH1 0x40 DUP2 ADD SWAP1 POP PUSH2 0xB8B JUMP JUMPDEST POP POP POP SWAP4 SWAP3 POP POP POP JUMP JUMPDEST PUSH1 0x0 DUP3 PUSH1 0x1F DUP4 ADD SLT PUSH2 0xBD1 JUMPI PUSH2 0xBD0 PUSH2 0x78F JUMP JUMPDEST JUMPDEST DUP2 CALLDATALOAD PUSH2 0xBE1 DUP5 DUP3 PUSH1 0x20 DUP7 ADD PUSH2 0xB53 JUMP JUMPDEST SWAP2 POP POP SWAP3 SWAP2 POP POP JUMP JUMPDEST PUSH1 0x0 PUSH1 0x20 DUP3 DUP5 SUB SLT ISZERO PUSH2 0xC00 JUMPI PUSH2 0xBFF PUSH2 0x785 JUMP JUMPDEST JUMPDEST PUSH1 0x0 DUP3 ADD CALLDATALOAD PUSH8 0xFFFFFFFFFFFFFFFF DUP2 GT ISZERO PUSH2 0xC1E JUMPI PUSH2 0xC1D PUSH2 0x78A JUMP JUMPDEST JUMPDEST PUSH2 0xC2A DUP5 DUP3 DUP6 ADD PUSH2 0xBBC JUMP JUMPDEST SWAP2 POP POP SWAP3 SWAP2 POP POP JUMP JUMPDEST PUSH1 0x0 DUP3 DUP3 MSTORE PUSH1 0x20 DUP3 ADD SWAP1 POP SWAP3 SWAP2 POP POP JUMP JUMPDEST PUSH32 0x6F6E6C792061646D696E00000000000000000000000000000000000000000000 PUSH1 0x0 DUP3 ADD MSTORE POP JUMP JUMPDEST PUSH1 0x0 PUSH2 0xC7A PUSH1 0xA DUP4 PUSH2 0xC33 JUMP JUMPDEST SWAP2 POP PUSH2 0xC85 DUP3 PUSH2 0xC44 JUMP JUMPDEST PUSH1 0x20 DUP3 ADD SWAP1 POP SWAP2 SWAP1 POP JUMP JUMPDEST PUSH1 0x0 PUSH1 0x20 DUP3 ADD SWAP1 POP DUP2 DUP2 SUB PUSH1 0x0 DUP4 ADD MSTORE PUSH2 0xCA9 DUP2 PUSH2 0xC6D JUMP JUMPDEST SWAP1 POP SWAP2 SWAP1 POP JUMP JUMPDEST PUSH32 0x4E487B7100000000000000000000000000000000000000000000000000000000 PUSH1 0x0 MSTORE PUSH1 0x32 PUSH1 0x4 MSTORE PUSH1 0x24 PUSH1 0x0 REVERT JUMPDEST PUSH32 0x4E487B7100000000000000000000000000000000000000000000000000000000 PUSH1 0x0 MSTORE PUSH1 0x11 PUSH1 0x4 MSTORE PUSH1 0x24 PUSH1 0x0 REVERT JUMPDEST PUSH1 0x0 PUSH2 0xD19 DUP3 PUSH2 0x98F JUMP JUMPDEST SWAP2 POP PUSH32 0xFFFFFFFFFFFFFFFFFFFFFFFFFFFFFFFFFFFFFFFFFFFFFFFFFFFFFFFFFFFFFFFF DUP3 SUB PUSH2 0xD4B JUMPI PUSH2 0xD4A PUSH2 0xCDF JUMP JUMPDEST JUMPDEST PUSH1 0x1 DUP3 ADD SWAP1 POP SWAP2 SWAP1 POP JUMP JUMPDEST PUSH32 0x726563697069656E74206E6F7420726567697374657265640000000000000000 PUSH1 0x0 DUP3 ADD MSTORE POP JUMP JUMPDEST PUSH1 0x0 PUSH2 0xD8C PUSH1 0x18 DUP4 PUSH2 0xC33 JUMP JUMPDEST SWAP2 POP PUSH2 0xD97 DUP3 PUSH2 0xD56 JUMP JUMPDEST PUSH1 0x20 DUP3 ADD SWAP1 POP SWAP2 SWAP1 POP JUMP JUMPDEST PUSH1 0x0 PUSH1 0x20 DUP3 ADD SWAP1 POP DUP2 DUP2 SUB PUSH1 0x0 DUP4 ADD MSTORE PUSH2 0xDBB DUP2 PUSH2 0xD7F JUMP JUMPDEST SWAP1 POP SWAP2 SWAP1 POP JUMP JUMPDEST PUSH1 0x0 PUSH1 0x60 DUP3 ADD SWAP1 POP PUSH2 0xDD7 PUSH1 0x0 DUP4 ADD DUP7 PUSH2 0x9F2 JUMP JUMPDEST PUSH2 0xDE4 PUSH1 0x20 DUP4 ADD DUP6 PUSH2 0x9F2 JUMP JUMPDEST PUSH2 0xDF1 PUSH1 0x40 DUP4 ADD DUP5 PUSH2 0xA01 JUMP JUMPDEST SWAP5 SWAP4 POP POP POP POP JUMP INVALID LOG2 PUSH5 0x6970667358 0x22 SLT KECCAK256 REVERT 0xBF MSTORE 0x27 0xE2 0xC3 PUSH9 0x448BC35E4DCFE4F624 0xB5 0xA5 0xDB 0xC5 DUP16 PC 0xAC SWAP7 PUSH32 0xD2073736340B8664736F6C634300081100330000000000000000000000000000 "
				},
				"gasEstimates": {
					"creation": {
						"codeDepositCost": "726200",
						"executionCost": "25026",
						"totalCost": "751226"
					},
					"external": {
						"addAirdrops((address,uint256)[])": "infinite",
						"addRecipients(address[])": "infinite",
						"admin()": "2558",
						"airdrops(uint256)": "infinite",
						"claim()": "infinite",
						"nextAirdropId()": "2429",
						"recipients(address)": "2867",
						"removeRecipients(address[])": "infinite"
					}
				},
				"methodIdentifiers": {
					"addAirdrops((address,uint256)[])": "f8c8285b",
					"addRecipients(address[])": "29af54cc",
					"admin()": "f851a440",
					"airdrops(uint256)": "60db5082",
					"claim()": "4e71d92d",
					"nextAirdropId()": "aff38dc8",
					"recipients(address)": "eb820312",
					"removeRecipients(address[])": "639ab82f"
				}
			},
			"storageLayout": {
				"storage": [
					{
						"astId": 137,
						"contract": "airdrop.sol:NFTAirdrop",
						"label": "nextAirdropId",
						"offset": 0,
						"slot": "0",
						"type": "t_uint256"
					},
					{
						"astId": 139,
						"contract": "airdrop.sol:NFTAirdrop",
						"label": "admin",
						"offset": 0,
						"slot": "1",
						"type": "t_address"
					},
					{
						"astId": 144,
						"contract": "airdrop.sol:NFTAirdrop",
						"label": "airdrops",
						"offset": 0,
						"slot": "2",
						"type": "t_mapping(t_uint256,t_struct(Airdrop)135_storage)"
					},
					{
						"astId": 148,
						"contract": "airdrop.sol:NFTAirdrop",
						"label": "recipients",
						"offset": 0,
						"slot": "3",
						"type": "t_mapping(t_address,t_bool)"
					}
				],
				"types": {
					"t_address": {
						"encoding": "inplace",
						"label": "address",
						"numberOfBytes": "20"
					},
					"t_bool": {
						"encoding": "inplace",
						"label": "bool",
						"numberOfBytes": "1"
					},
					"t_mapping(t_address,t_bool)": {
						"encoding": "mapping",
						"key": "t_address",
						"label": "mapping(address => bool)",
						"numberOfBytes": "32",
						"value": "t_bool"
					},
					"t_mapping(t_uint256,t_struct(Airdrop)135_storage)": {
						"encoding": "mapping",
						"key": "t_uint256",
						"label": "mapping(uint256 => struct NFTAirdrop.Airdrop)",
						"numberOfBytes": "32",
						"value": "t_struct(Airdrop)135_storage"
					},
					"t_struct(Airdrop)135_storage": {
						"encoding": "inplace",
						"label": "struct NFTAirdrop.Airdrop",
						"members": [
							{
								"astId": 132,
								"contract": "airdrop.sol:NFTAirdrop",
								"label": "nft",
								"offset": 0,
								"slot": "0",
								"type": "t_address"
							},
							{
								"astId": 134,
								"contract": "airdrop.sol:NFTAirdrop",
								"label": "id",
								"offset": 0,
								"slot": "1",
								"type": "t_uint256"
							}
						],
						"numberOfBytes": "64"
					},
					"t_uint256": {
						"encoding": "inplace",
						"label": "uint256",
						"numberOfBytes": "32"
					}
				}
			},
			"userdoc": {
				"kind": "user",
				"methods": {},
				"version": 1
			}
		}
	}
}